{
  "_format": "hh-sol-artifact-1",
  "contractName": "MyEpicNFT",
  "sourceName": "contracts/MyEpicNFT.sol",
  "abi": [
    {
      "inputs": [],
      "stateMutability": "nonpayable",
      "type": "constructor"
    },
    {
      "anonymous": false,
      "inputs": [
        {
          "indexed": true,
          "internalType": "address",
          "name": "owner",
          "type": "address"
        },
        {
          "indexed": true,
          "internalType": "address",
          "name": "approved",
          "type": "address"
        },
        {
          "indexed": true,
          "internalType": "uint256",
          "name": "tokenId",
          "type": "uint256"
        }
      ],
      "name": "Approval",
      "type": "event"
    },
    {
      "anonymous": false,
      "inputs": [
        {
          "indexed": true,
          "internalType": "address",
          "name": "owner",
          "type": "address"
        },
        {
          "indexed": true,
          "internalType": "address",
          "name": "operator",
          "type": "address"
        },
        {
          "indexed": false,
          "internalType": "bool",
          "name": "approved",
          "type": "bool"
        }
      ],
      "name": "ApprovalForAll",
      "type": "event"
    },
    {
      "anonymous": false,
      "inputs": [
        {
          "indexed": false,
          "internalType": "address",
          "name": "sender",
          "type": "address"
        },
        {
          "indexed": false,
          "internalType": "uint256",
          "name": "tokenId",
          "type": "uint256"
        },
        {
          "indexed": false,
          "internalType": "string[]",
          "name": "collections",
          "type": "string[]"
        }
      ],
      "name": "NewEpicNFTMinted",
      "type": "event"
    },
    {
      "anonymous": false,
      "inputs": [
        {
          "indexed": true,
          "internalType": "address",
          "name": "from",
          "type": "address"
        },
        {
          "indexed": true,
          "internalType": "address",
          "name": "to",
          "type": "address"
        },
        {
          "indexed": true,
          "internalType": "uint256",
          "name": "tokenId",
          "type": "uint256"
        }
      ],
      "name": "Transfer",
      "type": "event"
    },
    {
      "inputs": [
        {
          "internalType": "address",
          "name": "to",
          "type": "address"
        },
        {
          "internalType": "uint256",
          "name": "tokenId",
          "type": "uint256"
        }
      ],
      "name": "approve",
      "outputs": [],
      "stateMutability": "nonpayable",
      "type": "function"
    },
    {
      "inputs": [
        {
          "internalType": "address",
          "name": "owner",
          "type": "address"
        }
      ],
      "name": "balanceOf",
      "outputs": [
        {
          "internalType": "uint256",
          "name": "",
          "type": "uint256"
        }
      ],
      "stateMutability": "view",
      "type": "function"
    },
    {
      "inputs": [
        {
          "internalType": "uint256",
          "name": "tokenId",
          "type": "uint256"
        }
      ],
      "name": "getApproved",
      "outputs": [
        {
          "internalType": "address",
          "name": "",
          "type": "address"
        }
      ],
      "stateMutability": "view",
      "type": "function"
    },
    {
      "inputs": [],
      "name": "getMyCollections",
      "outputs": [
        {
          "internalType": "string[]",
          "name": "",
          "type": "string[]"
        }
      ],
      "stateMutability": "view",
      "type": "function"
    },
    {
      "inputs": [],
      "name": "getNumberOfNFTMinted",
      "outputs": [
        {
          "internalType": "uint256",
          "name": "",
          "type": "uint256"
        }
      ],
      "stateMutability": "view",
      "type": "function"
    },
    {
      "inputs": [
        {
          "internalType": "address",
          "name": "owner",
          "type": "address"
        },
        {
          "internalType": "address",
          "name": "operator",
          "type": "address"
        }
      ],
      "name": "isApprovedForAll",
      "outputs": [
        {
          "internalType": "bool",
          "name": "",
          "type": "bool"
        }
      ],
      "stateMutability": "view",
      "type": "function"
    },
    {
      "inputs": [],
      "name": "makeAnEpicNFT",
      "outputs": [],
      "stateMutability": "nonpayable",
      "type": "function"
    },
    {
      "inputs": [],
      "name": "name",
      "outputs": [
        {
          "internalType": "string",
          "name": "",
          "type": "string"
        }
      ],
      "stateMutability": "view",
      "type": "function"
    },
    {
      "inputs": [
        {
          "internalType": "uint256",
          "name": "tokenId",
          "type": "uint256"
        }
      ],
      "name": "ownerOf",
      "outputs": [
        {
          "internalType": "address",
          "name": "",
          "type": "address"
        }
      ],
      "stateMutability": "view",
      "type": "function"
    },
    {
      "inputs": [
        {
          "internalType": "uint256",
          "name": "tokenId",
          "type": "uint256"
        }
      ],
      "name": "pickRandomColor",
      "outputs": [
        {
          "internalType": "string",
          "name": "",
          "type": "string"
        }
      ],
      "stateMutability": "view",
      "type": "function"
    },
    {
      "inputs": [
        {
          "internalType": "uint256",
          "name": "tokenId",
          "type": "uint256"
        }
      ],
      "name": "pickRandomFirstWord",
      "outputs": [
        {
          "internalType": "string",
          "name": "",
          "type": "string"
        }
      ],
      "stateMutability": "view",
      "type": "function"
    },
    {
      "inputs": [
        {
          "internalType": "uint256",
          "name": "tokenId",
          "type": "uint256"
        }
      ],
      "name": "pickRandomSecondWord",
      "outputs": [
        {
          "internalType": "string",
          "name": "",
          "type": "string"
        }
      ],
      "stateMutability": "view",
      "type": "function"
    },
    {
      "inputs": [
        {
          "internalType": "uint256",
          "name": "tokenId",
          "type": "uint256"
        }
      ],
      "name": "pickRandomThirdWord",
      "outputs": [
        {
          "internalType": "string",
          "name": "",
          "type": "string"
        }
      ],
      "stateMutability": "view",
      "type": "function"
    },
    {
      "inputs": [
        {
          "internalType": "address",
          "name": "from",
          "type": "address"
        },
        {
          "internalType": "address",
          "name": "to",
          "type": "address"
        },
        {
          "internalType": "uint256",
          "name": "tokenId",
          "type": "uint256"
        }
      ],
      "name": "safeTransferFrom",
      "outputs": [],
      "stateMutability": "nonpayable",
      "type": "function"
    },
    {
      "inputs": [
        {
          "internalType": "address",
          "name": "from",
          "type": "address"
        },
        {
          "internalType": "address",
          "name": "to",
          "type": "address"
        },
        {
          "internalType": "uint256",
          "name": "tokenId",
          "type": "uint256"
        },
        {
          "internalType": "bytes",
          "name": "_data",
          "type": "bytes"
        }
      ],
      "name": "safeTransferFrom",
      "outputs": [],
      "stateMutability": "nonpayable",
      "type": "function"
    },
    {
      "inputs": [
        {
          "internalType": "address",
          "name": "operator",
          "type": "address"
        },
        {
          "internalType": "bool",
          "name": "approved",
          "type": "bool"
        }
      ],
      "name": "setApprovalForAll",
      "outputs": [],
      "stateMutability": "nonpayable",
      "type": "function"
    },
    {
      "inputs": [
        {
          "internalType": "bytes4",
          "name": "interfaceId",
          "type": "bytes4"
        }
      ],
      "name": "supportsInterface",
      "outputs": [
        {
          "internalType": "bool",
          "name": "",
          "type": "bool"
        }
      ],
      "stateMutability": "view",
      "type": "function"
    },
    {
      "inputs": [],
      "name": "symbol",
      "outputs": [
        {
          "internalType": "string",
          "name": "",
          "type": "string"
        }
      ],
      "stateMutability": "view",
      "type": "function"
    },
    {
      "inputs": [
        {
          "internalType": "uint256",
          "name": "tokenId",
          "type": "uint256"
        }
      ],
      "name": "tokenURI",
      "outputs": [
        {
          "internalType": "string",
          "name": "",
          "type": "string"
        }
      ],
      "stateMutability": "view",
      "type": "function"
    },
    {
      "inputs": [
        {
          "internalType": "address",
          "name": "from",
          "type": "address"
        },
        {
          "internalType": "address",
          "name": "to",
          "type": "address"
        },
        {
          "internalType": "uint256",
          "name": "tokenId",
          "type": "uint256"
        }
      ],
      "name": "transferFrom",
      "outputs": [],
      "stateMutability": "nonpayable",
      "type": "function"
    }
  ],
  "bytecode": "0x608060405260405180610100016040528060d3815260200162004aac60d39139600a9080519060200190620000369291906200082c565b5060405180608001604052806056815260200162004b7f60569139600b9080519060200190620000689291906200082c565b506040518060c001604052806040518060400160405280600481526020017f444f47450000000000000000000000000000000000000000000000000000000081525081526020016040518060400160405280600381526020017f425443000000000000000000000000000000000000000000000000000000000081525081526020016040518060400160405280600481526020017f4c554e410000000000000000000000000000000000000000000000000000000081525081526020016040518060400160405280600381526020017f444f54000000000000000000000000000000000000000000000000000000000081525081526020016040518060400160405280600381526020017f455448000000000000000000000000000000000000000000000000000000000081525081526020016040518060400160405280600381526020017f534f4c0000000000000000000000000000000000000000000000000000000000815250815250600c906006620001e6929190620008bd565b506040518060c001604052806040518060400160405280600481526020017f4d6172730000000000000000000000000000000000000000000000000000000081525081526020016040518060400160405280600481526020017f4d6f6f6e0000000000000000000000000000000000000000000000000000000081525081526020016040518060400160405280600781526020017f4d6572637572790000000000000000000000000000000000000000000000000081525081526020016040518060400160405280600781526020017f4a7570697465720000000000000000000000000000000000000000000000000081525081526020016040518060400160405280600681526020017f53617475726e000000000000000000000000000000000000000000000000000081525081526020016040518060400160405280600781526020017f4e657074756e6500000000000000000000000000000000000000000000000000815250815250600d90600662000364929190620008bd565b506040518060c001604052806040518060400160405280600481526020017f436f6b650000000000000000000000000000000000000000000000000000000081525081526020016040518060400160405280600481526020017f426565720000000000000000000000000000000000000000000000000000000081525081526020016040518060400160405280600881526020017f4b6f6d627563686100000000000000000000000000000000000000000000000081525081526020016040518060400160405280600481526020017f57696e650000000000000000000000000000000000000000000000000000000081525081526020016040518060400160405280600581526020017f576174657200000000000000000000000000000000000000000000000000000081525081526020016040518060400160405280600581526020017f4a75696365000000000000000000000000000000000000000000000000000000815250815250600e906006620004e2929190620008bd565b506040518060c001604052806040518060400160405280600381526020017f726564000000000000000000000000000000000000000000000000000000000081525081526020016040518060400160405280600781526020017f233038433241380000000000000000000000000000000000000000000000000081525081526020016040518060400160405280600581526020017f626c61636b00000000000000000000000000000000000000000000000000000081525081526020016040518060400160405280600681526020017f79656c6c6f77000000000000000000000000000000000000000000000000000081525081526020016040518060400160405280600481526020017f626c75650000000000000000000000000000000000000000000000000000000081525081526020016040518060400160405280600581526020017f677265656e000000000000000000000000000000000000000000000000000000815250815250600f90600662000660929190620008bd565b503480156200066e57600080fd5b506040518060400160405280600981526020017f5371756172654e465400000000000000000000000000000000000000000000008152506040518060400160405280600681526020017f53515541524500000000000000000000000000000000000000000000000000008152508160009080519060200190620006f39291906200082c565b5080600190805190602001906200070c9291906200082c565b5050506200075a6040518060400160405280601e81526020017f54686973206973206d79204e465420636f6e74726163742e20576f61682100008152506200076060201b6200162b1760201c565b62000ade565b6200080081604051602401620007779190620009f2565b6040516020818303038152906040527f41304fac000000000000000000000000000000000000000000000000000000007bffffffffffffffffffffffffffffffffffffffffffffffffffffffff19166020820180517bffffffffffffffffffffffffffffffffffffffffffffffffffffffff83818316178352505050506200080360201b60201c565b50565b60008151905060006a636f6e736f6c652e6c6f679050602083016000808483855afa5050505050565b8280546200083a9062000a68565b90600052602060002090601f0160209004810192826200085e5760008555620008aa565b82601f106200087957805160ff1916838001178555620008aa565b82800160010185558215620008aa579182015b82811115620008a95782518255916020019190600101906200088c565b5b509050620008b9919062000924565b5090565b82805482825590600052602060002090810192821562000911579160200282015b8281111562000910578251829080519060200190620008ff9291906200082c565b5091602001919060010190620008de565b5b50905062000920919062000943565b5090565b5b808211156200093f57600081600090555060010162000925565b5090565b5b808211156200096757600081816200095d91906200096b565b5060010162000944565b5090565b508054620009799062000a68565b6000825580601f106200098d5750620009ae565b601f016020900490600052602060002090810190620009ad919062000924565b5b50565b6000620009be8262000a16565b620009ca818562000a21565b9350620009dc81856020860162000a32565b620009e78162000acd565b840191505092915050565b6000602082019050818103600083015262000a0e8184620009b1565b905092915050565b600081519050919050565b600082825260208201905092915050565b60005b8381101562000a5257808201518184015260208101905062000a35565b8381111562000a62576000848401525b50505050565b6000600282049050600182168062000a8157607f821691505b6020821081141562000a985762000a9762000a9e565b5b50919050565b7f4e487b7100000000000000000000000000000000000000000000000000000000600052602260045260246000fd5b6000601f19601f8301169050919050565b613fbe8062000aee6000396000f3fe608060405234801561001057600080fd5b506004361061012c5760003560e01c806395d89b41116100ad578063c87b56dd11610071578063c87b56dd14610379578063d6101980146103a9578063de9d132f146103c7578063e985e9c5146103d1578063eb1c4273146104015761012c565b806395d89b41146102c3578063a22cb465146102e1578063b187301f146102fd578063b88d4fde1461032d578063c575757a146103495761012c565b80632de38d68116100f45780632de38d68146101e757806342842e0e14610217578063514dc8c6146102335780636352211e1461026357806370a08231146102935761012c565b806301ffc9a71461013157806306fdde0314610161578063081812fc1461017f578063095ea7b3146101af57806323b872dd146101cb575b600080fd5b61014b600480360381019061014691906128be565b61041f565b604051610158919061379d565b60405180910390f35b610169610501565b60405161017691906137b8565b60405180910390f35b61019960048036038101906101949190612910565b610593565b6040516101a691906136d6565b60405180910390f35b6101c960048036038101906101c49190612882565b610618565b005b6101e560048036038101906101e0919061277c565b610730565b005b61020160048036038101906101fc9190612910565b610790565b60405161020e91906137b8565b60405180910390f35b610231600480360381019061022c919061277c565b6108ae565b005b61024d60048036038101906102489190612910565b6108ce565b60405161025a91906137b8565b60405180910390f35b61027d60048036038101906102789190612910565b6109ec565b60405161028a91906136d6565b60405180910390f35b6102ad60048036038101906102a89190612717565b610a9e565b6040516102ba9190613a38565b60405180910390f35b6102cb610b56565b6040516102d891906137b8565b60405180910390f35b6102fb60048036038101906102f69190612846565b610be8565b005b61031760048036038101906103129190612910565b610d69565b60405161032491906137b8565b60405180910390f35b610347600480360381019061034291906127cb565b610e87565b005b610363600480360381019061035e9190612910565b610ee9565b60405161037091906137b8565b60405180910390f35b610393600480360381019061038e9190612910565b611007565b6040516103a091906137b8565b60405180910390f35b6103b1611159565b6040516103be919061377b565b60405180910390f35b6103cf61126f565b005b6103eb60048036038101906103e69190612740565b61158d565b6040516103f8919061379d565b60405180910390f35b610409611621565b6040516104169190613a38565b60405180910390f35b60007f80ac58cd000000000000000000000000000000000000000000000000000000007bffffffffffffffffffffffffffffffffffffffffffffffffffffffff1916827bffffffffffffffffffffffffffffffffffffffffffffffffffffffff191614806104ea57507f5b5e139f000000000000000000000000000000000000000000000000000000007bffffffffffffffffffffffffffffffffffffffffffffffffffffffff1916827bffffffffffffffffffffffffffffffffffffffffffffffffffffffff1916145b806104fa57506104f9826116c4565b5b9050919050565b60606000805461051090613d4e565b80601f016020809104026020016040519081016040528092919081815260200182805461053c90613d4e565b80156105895780601f1061055e57610100808354040283529160200191610589565b820191906000526020600020905b81548152906001019060200180831161056c57829003601f168201915b5050505050905090565b600061059e8261172e565b6105dd576040517f08c379a00000000000000000000000000000000000000000000000000000000081526004016105d490613998565b60405180910390fd5b6004600083815260200190815260200160002060009054906101000a900473ffffffffffffffffffffffffffffffffffffffff169050919050565b6000610623826109ec565b90508073ffffffffffffffffffffffffffffffffffffffff168373ffffffffffffffffffffffffffffffffffffffff161415610694576040517f08c379a000000000000000000000000000000000000000000000000000000000815260040161068b906139f8565b60405180910390fd5b8073ffffffffffffffffffffffffffffffffffffffff166106b361179a565b73ffffffffffffffffffffffffffffffffffffffff1614806106e257506106e1816106dc61179a565b61158d565b5b610721576040517f08c379a0000000000000000000000000000000000000000000000000000000008152600401610718906138b8565b60405180910390fd5b61072b83836117a2565b505050565b61074161073b61179a565b8261185b565b610780576040517f08c379a000000000000000000000000000000000000000000000000000000000815260040161077790613a18565b60405180910390fd5b61078b838383611939565b505050565b606060006107c46107a084611b95565b6040516020016107b09190613670565b604051602081830303815290604052611d42565b9050600c80549050816107d79190613dc9565b9050600c8181548110610813577f4e487b7100000000000000000000000000000000000000000000000000000000600052603260045260246000fd5b90600052602060002001805461082890613d4e565b80601f016020809104026020016040519081016040528092919081815260200182805461085490613d4e565b80156108a15780601f10610876576101008083540402835291602001916108a1565b820191906000526020600020905b81548152906001019060200180831161088457829003601f168201915b5050505050915050919050565b6108c983838360405180602001604052806000815250610e87565b505050565b606060006109026108de84611b95565b6040516020016108ee91906136b4565b604051602081830303815290604052611d42565b9050600f80549050816109159190613dc9565b9050600f8181548110610951577f4e487b7100000000000000000000000000000000000000000000000000000000600052603260045260246000fd5b90600052602060002001805461096690613d4e565b80601f016020809104026020016040519081016040528092919081815260200182805461099290613d4e565b80156109df5780601f106109b4576101008083540402835291602001916109df565b820191906000526020600020905b8154815290600101906020018083116109c257829003601f168201915b5050505050915050919050565b6000806002600084815260200190815260200160002060009054906101000a900473ffffffffffffffffffffffffffffffffffffffff169050600073ffffffffffffffffffffffffffffffffffffffff168173ffffffffffffffffffffffffffffffffffffffff161415610a95576040517f08c379a0000000000000000000000000000000000000000000000000000000008152600401610a8c906138f8565b60405180910390fd5b80915050919050565b60008073ffffffffffffffffffffffffffffffffffffffff168273ffffffffffffffffffffffffffffffffffffffff161415610b0f576040517f08c379a0000000000000000000000000000000000000000000000000000000008152600401610b06906138d8565b60405180910390fd5b600360008373ffffffffffffffffffffffffffffffffffffffff1673ffffffffffffffffffffffffffffffffffffffff168152602001908152602001600020549050919050565b606060018054610b6590613d4e565b80601f0160208091040260200160405190810160405280929190818152602001828054610b9190613d4e565b8015610bde5780601f10610bb357610100808354040283529160200191610bde565b820191906000526020600020905b815481529060010190602001808311610bc157829003601f168201915b5050505050905090565b610bf061179a565b73ffffffffffffffffffffffffffffffffffffffff168273ffffffffffffffffffffffffffffffffffffffff161415610c5e576040517f08c379a0000000000000000000000000000000000000000000000000000000008152600401610c5590613878565b60405180910390fd5b8060056000610c6b61179a565b73ffffffffffffffffffffffffffffffffffffffff1673ffffffffffffffffffffffffffffffffffffffff16815260200190815260200160002060008473ffffffffffffffffffffffffffffffffffffffff1673ffffffffffffffffffffffffffffffffffffffff16815260200190815260200160002060006101000a81548160ff0219169083151502179055508173ffffffffffffffffffffffffffffffffffffffff16610d1861179a565b73ffffffffffffffffffffffffffffffffffffffff167f17307eab39ab6107e8899845ad3d59bd9653f200f220920489ca2b5937696c3183604051610d5d919061379d565b60405180910390a35050565b60606000610d9d610d7984611b95565b604051602001610d899190613609565b604051602081830303815290604052611d42565b9050600d8054905081610db09190613dc9565b9050600d8181548110610dec577f4e487b7100000000000000000000000000000000000000000000000000000000600052603260045260246000fd5b906000526020600020018054610e0190613d4e565b80601f0160208091040260200160405190810160405280929190818152602001828054610e2d90613d4e565b8015610e7a5780601f10610e4f57610100808354040283529160200191610e7a565b820191906000526020600020905b815481529060010190602001808311610e5d57829003601f168201915b5050505050915050919050565b610e98610e9261179a565b8361185b565b610ed7576040517f08c379a0000000000000000000000000000000000000000000000000000000008152600401610ece90613a18565b60405180910390fd5b610ee384848484611d75565b50505050565b60606000610f1d610ef984611b95565b604051602001610f0991906135e7565b604051602081830303815290604052611d42565b9050600e8054905081610f309190613dc9565b9050600e8181548110610f6c577f4e487b7100000000000000000000000000000000000000000000000000000000600052603260045260246000fd5b906000526020600020018054610f8190613d4e565b80601f0160208091040260200160405190810160405280929190818152602001828054610fad90613d4e565b8015610ffa5780601f10610fcf57610100808354040283529160200191610ffa565b820191906000526020600020905b815481529060010190602001808311610fdd57829003601f168201915b5050505050915050919050565b60606110128261172e565b611051576040517f08c379a000000000000000000000000000000000000000000000000000000000815260040161104890613978565b60405180910390fd5b600060066000848152602001908152602001600020805461107190613d4e565b80601f016020809104026020016040519081016040528092919081815260200182805461109d90613d4e565b80156110ea5780601f106110bf576101008083540402835291602001916110ea565b820191906000526020600020905b8154815290600101906020018083116110cd57829003601f168201915b5050505050905060006110fb611dd1565b9050600081511415611111578192505050611154565b60008251111561114657808260405160200161112e929190613549565b60405160208183030381529060405292505050611154565b61114f84611de8565b925050505b919050565b6060600960003373ffffffffffffffffffffffffffffffffffffffff1673ffffffffffffffffffffffffffffffffffffffff168152602001908152602001600020805480602002602001604051908101604052809291908181526020016000905b828210156112665783829060005260206000200180546111d990613d4e565b80601f016020809104026020016040519081016040528092919081815260200182805461120590613d4e565b80156112525780601f1061122757610100808354040283529160200191611252565b820191906000526020600020905b81548152906001019060200180831161123557829003601f168201915b5050505050815260200190600101906111ba565b50505050905090565b6032600854106112b4576040517f08c379a00000000000000000000000000000000000000000000000000000000081526004016112ab90613938565b60405180910390fd5b60006112c06007611e8f565b905060006112cd82610790565b905060006112da83610d69565b905060006112e784610ee9565b905060008383836040516020016113009392919061356d565b6040516020818303038152906040529050600061131c866108ce565b90506000600a82600b85604051602001611339949392919061359e565b6040516020818303038152906040529050600061137e8461135984611e9d565b60405160200161136a92919061362b565b604051602081830303815290604052611e9d565b90506000816040516020016113939190613692565b60405160208183030381529060405290506113e26040518060400160405280601581526020017f0a2d2d2d2d2d2d2d2d2d2d2d2d2d2d2d2d2d2d2d2d000000000000000000000081525061162b565b6113eb8361162b565b6114296040518060400160405280601581526020017f2d2d2d2d2d2d2d2d2d2d2d2d2d2d2d2d2d2d2d2d0a000000000000000000000081525061162b565b611433338a61205b565b61143d8982612079565b611460604051806060016040528060258152602001613f24602591398a336120ed565b61146a600761218c565b6008600081548092919061147d90613d80565b91905055506000600990508060003373ffffffffffffffffffffffffffffffffffffffff1673ffffffffffffffffffffffffffffffffffffffff1681526020019081526020016000206114cf85611e9d565b9080600181540180825580915050600190039060005260206000200160009091909190915090805190602001906115079291906125a3565b507f95bf6be4fe70e664679f311387ee5316f47007c23b16fdff7b2880a335e9353e338b600960003373ffffffffffffffffffffffffffffffffffffffff1673ffffffffffffffffffffffffffffffffffffffff1681526020019081526020016000206040516115799392919061373d565b60405180910390a150505050505050505050565b6000600560008473ffffffffffffffffffffffffffffffffffffffff1673ffffffffffffffffffffffffffffffffffffffff16815260200190815260200160002060008373ffffffffffffffffffffffffffffffffffffffff1673ffffffffffffffffffffffffffffffffffffffff16815260200190815260200160002060009054906101000a900460ff16905092915050565b6000600854905090565b6116c18160405160240161163f91906137b8565b6040516020818303038152906040527f41304fac000000000000000000000000000000000000000000000000000000007bffffffffffffffffffffffffffffffffffffffffffffffffffffffff19166020820180517bffffffffffffffffffffffffffffffffffffffffffffffffffffffff83818316178352505050506121a2565b50565b60007f01ffc9a7000000000000000000000000000000000000000000000000000000007bffffffffffffffffffffffffffffffffffffffffffffffffffffffff1916827bffffffffffffffffffffffffffffffffffffffffffffffffffffffff1916149050919050565b60008073ffffffffffffffffffffffffffffffffffffffff166002600084815260200190815260200160002060009054906101000a900473ffffffffffffffffffffffffffffffffffffffff1673ffffffffffffffffffffffffffffffffffffffff1614159050919050565b600033905090565b816004600083815260200190815260200160002060006101000a81548173ffffffffffffffffffffffffffffffffffffffff021916908373ffffffffffffffffffffffffffffffffffffffff160217905550808273ffffffffffffffffffffffffffffffffffffffff16611815836109ec565b73ffffffffffffffffffffffffffffffffffffffff167f8c5be1e5ebec7d5bd14f71427d1e84f3dd0314c0f7b2291e5b200ac8c7c3b92560405160405180910390a45050565b60006118668261172e565b6118a5576040517f08c379a000000000000000000000000000000000000000000000000000000000815260040161189c90613898565b60405180910390fd5b60006118b0836109ec565b90508073ffffffffffffffffffffffffffffffffffffffff168473ffffffffffffffffffffffffffffffffffffffff16148061191f57508373ffffffffffffffffffffffffffffffffffffffff1661190784610593565b73ffffffffffffffffffffffffffffffffffffffff16145b80611930575061192f818561158d565b5b91505092915050565b8273ffffffffffffffffffffffffffffffffffffffff16611959826109ec565b73ffffffffffffffffffffffffffffffffffffffff16146119af576040517f08c379a00000000000000000000000000000000000000000000000000000000081526004016119a6906139b8565b60405180910390fd5b600073ffffffffffffffffffffffffffffffffffffffff168273ffffffffffffffffffffffffffffffffffffffff161415611a1f576040517f08c379a0000000000000000000000000000000000000000000000000000000008152600401611a1690613858565b60405180910390fd5b611a2a8383836121cb565b611a356000826117a2565b6001600360008573ffffffffffffffffffffffffffffffffffffffff1673ffffffffffffffffffffffffffffffffffffffff1681526020019081526020016000206000828254611a859190613c64565b925050819055506001600360008473ffffffffffffffffffffffffffffffffffffffff1673ffffffffffffffffffffffffffffffffffffffff1681526020019081526020016000206000828254611adc9190613b83565b92505081905550816002600083815260200190815260200160002060006101000a81548173ffffffffffffffffffffffffffffffffffffffff021916908373ffffffffffffffffffffffffffffffffffffffff160217905550808273ffffffffffffffffffffffffffffffffffffffff168473ffffffffffffffffffffffffffffffffffffffff167fddf252ad1be2c89b69c2b068fc378daa952ba7f163c4a11628f55a4df523b3ef60405160405180910390a4505050565b60606000821415611bdd576040518060400160405280600181526020017f30000000000000000000000000000000000000000000000000000000000000008152509050611d3d565b600082905060005b60008214611c0f578080611bf890613d80565b915050600a82611c089190613bd9565b9150611be5565b60008167ffffffffffffffff811115611c51577f4e487b7100000000000000000000000000000000000000000000000000000000600052604160045260246000fd5b6040519080825280601f01601f191660200182016040528015611c835781602001600182028036833780820191505090505b5090505b60008514611d3657600182611c9c9190613c64565b9150600a85611cab9190613dc9565b6030611cb79190613b83565b60f81b818381518110611cf3577f4e487b7100000000000000000000000000000000000000000000000000000000600052603260045260246000fd5b60200101907effffffffffffffffffffffffffffffffffffffffffffffffffffffffffffff1916908160001a905350600a85611d2f9190613bd9565b9450611c87565b8093505050505b919050565b600081604051602001611d559190613532565b6040516020818303038152906040528051906020012060001c9050919050565b611d80848484611939565b611d8c848484846121d0565b611dcb576040517f08c379a0000000000000000000000000000000000000000000000000000000008152600401611dc290613818565b60405180910390fd5b50505050565b606060405180602001604052806000815250905090565b6060611df38261172e565b611e32576040517f08c379a0000000000000000000000000000000000000000000000000000000008152600401611e29906139d8565b60405180910390fd5b6000611e3c611dd1565b90506000815111611e5c5760405180602001604052806000815250611e87565b80611e6684611b95565b604051602001611e77929190613549565b6040516020818303038152906040525b915050919050565b600081600001549050919050565b60606000825190506000811415611ec65760405180602001604052806000815250915050612056565b60006003600283611ed79190613b83565b611ee19190613bd9565b6004611eed9190613c0a565b90506000602082611efe9190613b83565b67ffffffffffffffff811115611f3d577f4e487b7100000000000000000000000000000000000000000000000000000000600052604160045260246000fd5b6040519080825280601f01601f191660200182016040528015611f6f5781602001600182028036833780820191505090505b5090506000604051806060016040528060408152602001613f49604091399050600181016020830160005b868110156120135760038101905062ffffff818a015116603f8160121c168401518060081b905060ff603f83600c1c1686015116810190508060081b905060ff603f8360061c1686015116810190508060081b905060ff603f831686015116810190508060e01b90508084526004840193505050611f9a565b50600386066001811461202d576002811461203d57612048565b613d3d60f01b6002830352612048565b603d60f81b60018303525b508484525050819450505050505b919050565b612075828260405180602001604052806000815250612367565b5050565b6120828261172e565b6120c1576040517f08c379a00000000000000000000000000000000000000000000000000000000081526004016120b890613918565b60405180910390fd5b806006600084815260200190815260200160002090805190602001906120e89291906125a3565b505050565b612187838383604051602401612105939291906137da565b6040516020818303038152906040527fe3849f79000000000000000000000000000000000000000000000000000000007bffffffffffffffffffffffffffffffffffffffffffffffffffffffff19166020820180517bffffffffffffffffffffffffffffffffffffffffffffffffffffffff83818316178352505050506121a2565b505050565b6001816000016000828254019250508190555050565b60008151905060006a636f6e736f6c652e6c6f679050602083016000808483855afa5050505050565b505050565b60006121f18473ffffffffffffffffffffffffffffffffffffffff166123c2565b1561235a578373ffffffffffffffffffffffffffffffffffffffff1663150b7a0261221a61179a565b8786866040518563ffffffff1660e01b815260040161223c94939291906136f1565b602060405180830381600087803b15801561225657600080fd5b505af192505050801561228757506040513d601f19601f8201168201806040525081019061228491906128e7565b60015b61230a573d80600081146122b7576040519150601f19603f3d011682016040523d82523d6000602084013e6122bc565b606091505b50600081511415612302576040517f08c379a00000000000000000000000000000000000000000000000000000000081526004016122f990613818565b60405180910390fd5b805181602001fd5b63150b7a0260e01b7bffffffffffffffffffffffffffffffffffffffffffffffffffffffff1916817bffffffffffffffffffffffffffffffffffffffffffffffffffffffff19161491505061235f565b600190505b949350505050565b61237183836123d5565b61237e60008484846121d0565b6123bd576040517f08c379a00000000000000000000000000000000000000000000000000000000081526004016123b490613818565b60405180910390fd5b505050565b600080823b905060008111915050919050565b600073ffffffffffffffffffffffffffffffffffffffff168273ffffffffffffffffffffffffffffffffffffffff161415612445576040517f08c379a000000000000000000000000000000000000000000000000000000000815260040161243c90613958565b60405180910390fd5b61244e8161172e565b1561248e576040517f08c379a000000000000000000000000000000000000000000000000000000000815260040161248590613838565b60405180910390fd5b61249a600083836121cb565b6001600360008473ffffffffffffffffffffffffffffffffffffffff1673ffffffffffffffffffffffffffffffffffffffff16815260200190815260200160002060008282546124ea9190613b83565b92505081905550816002600083815260200190815260200160002060006101000a81548173ffffffffffffffffffffffffffffffffffffffff021916908373ffffffffffffffffffffffffffffffffffffffff160217905550808273ffffffffffffffffffffffffffffffffffffffff16600073ffffffffffffffffffffffffffffffffffffffff167fddf252ad1be2c89b69c2b068fc378daa952ba7f163c4a11628f55a4df523b3ef60405160405180910390a45050565b8280546125af90613d4e565b90600052602060002090601f0160209004810192826125d15760008555612618565b82601f106125ea57805160ff1916838001178555612618565b82800160010185558215612618579182015b828111156126175782518255916020019190600101906125fc565b5b5090506126259190612629565b5090565b5b8082111561264257600081600090555060010161262a565b5090565b600061265961265484613a84565b613a53565b90508281526020810184848401111561267157600080fd5b61267c848285613d0c565b509392505050565b60008135905061269381613ec7565b92915050565b6000813590506126a881613ede565b92915050565b6000813590506126bd81613ef5565b92915050565b6000815190506126d281613ef5565b92915050565b600082601f8301126126e957600080fd5b81356126f9848260208601612646565b91505092915050565b60008135905061271181613f0c565b92915050565b60006020828403121561272957600080fd5b600061273784828501612684565b91505092915050565b6000806040838503121561275357600080fd5b600061276185828601612684565b925050602061277285828601612684565b9150509250929050565b60008060006060848603121561279157600080fd5b600061279f86828701612684565b93505060206127b086828701612684565b92505060406127c186828701612702565b9150509250925092565b600080600080608085870312156127e157600080fd5b60006127ef87828801612684565b945050602061280087828801612684565b935050604061281187828801612702565b925050606085013567ffffffffffffffff81111561282e57600080fd5b61283a878288016126d8565b91505092959194509250565b6000806040838503121561285957600080fd5b600061286785828601612684565b925050602061287885828601612699565b9150509250929050565b6000806040838503121561289557600080fd5b60006128a385828601612684565b92505060206128b485828601612702565b9150509250929050565b6000602082840312156128d057600080fd5b60006128de848285016126ae565b91505092915050565b6000602082840312156128f957600080fd5b6000612907848285016126c3565b91505092915050565b60006020828403121561292257600080fd5b600061293084828501612702565b91505092915050565b60006129458383612aa1565b905092915050565b60006129598383612b44565b905092915050565b61296a81613c98565b82525050565b600061297b82613aee565b6129858185613b34565b93508360208202850161299785613ab4565b8060005b858110156129d357848403895281516129b48582612939565b94506129bf83613b1a565b925060208a0199505060018101905061299b565b50829750879550505050505092915050565b60006129f082613af9565b6129fa8185613b34565b935083602082028501612a0c85613ac4565b8060005b85811015612a4757848403895281612a28858261294d565b9450612a3383613b27565b925060208a01995050600181019050612a10565b50829750879550505050505092915050565b612a6281613caa565b82525050565b6000612a7382613b04565b612a7d8185613b45565b9350612a8d818560208601613d1b565b612a9681613eb6565b840191505092915050565b6000612aac82613b0f565b612ab68185613b56565b9350612ac6818560208601613d1b565b612acf81613eb6565b840191505092915050565b6000612ae582613b0f565b612aef8185613b67565b9350612aff818560208601613d1b565b612b0881613eb6565b840191505092915050565b6000612b1e82613b0f565b612b288185613b78565b9350612b38818560208601613d1b565b80840191505092915050565b60008154612b5181613d4e565b612b5b8186613b56565b94506001821660008114612b765760018114612b8857612bbb565b60ff1983168652602086019350612bbb565b612b9185613ad9565b60005b83811015612bb357815481890152600182019150602081019050612b94565b808801955050505b50505092915050565b60008154612bd181613d4e565b612bdb8186613b78565b94506001821660008114612bf65760018114612c0757612c3a565b60ff19831686528186019350612c3a565b612c1085613ad9565b60005b83811015612c3257815481890152600182019150602081019050612c13565b838801955050505b50505092915050565b6000612c50603283613b67565b91507f4552433732313a207472616e7366657220746f206e6f6e20455243373231526560008301527f63656976657220696d706c656d656e74657200000000000000000000000000006020830152604082019050919050565b6000612cb6601c83613b67565b91507f4552433732313a20746f6b656e20616c7265616479206d696e746564000000006000830152602082019050919050565b6000612cf6600a83613b78565b91507f54484952445f574f5244000000000000000000000000000000000000000000006000830152600a82019050919050565b6000612d36602483613b67565b91507f4552433732313a207472616e7366657220746f20746865207a65726f2061646460008301527f72657373000000000000000000000000000000000000000000000000000000006020830152604082019050919050565b6000612d9c601983613b67565b91507f4552433732313a20617070726f766520746f2063616c6c6572000000000000006000830152602082019050919050565b6000612ddc606383613b78565b91507f222c20226465736372697074696f6e223a20224120686967686c79206163636c60008301527f61696d656420636f6c6c656374696f6e206f6620737175617265732e222c202260208301527f696d616765223a2022646174613a696d6167652f7376672b786d6c3b6261736560408301527f36342c00000000000000000000000000000000000000000000000000000000006060830152606382019050919050565b6000612e8e600b83613b78565b91507f5345434f4e445f574f52440000000000000000000000000000000000000000006000830152600b82019050919050565b6000612ece602c83613b67565b91507f4552433732313a206f70657261746f7220717565727920666f72206e6f6e657860008301527f697374656e7420746f6b656e00000000000000000000000000000000000000006020830152604082019050919050565b6000612f34600d83613b78565b91507f3c2f746578743e3c2f7376673e000000000000000000000000000000000000006000830152600d82019050919050565b6000612f74603883613b67565b91507f4552433732313a20617070726f76652063616c6c6572206973206e6f74206f7760008301527f6e6572206e6f7220617070726f76656420666f7220616c6c00000000000000006020830152604082019050919050565b6000612fda602a83613b67565b91507f4552433732313a2062616c616e636520717565727920666f7220746865207a6560008301527f726f2061646472657373000000000000000000000000000000000000000000006020830152604082019050919050565b6000613040602983613b67565b91507f4552433732313a206f776e657220717565727920666f72206e6f6e657869737460008301527f656e7420746f6b656e00000000000000000000000000000000000000000000006020830152604082019050919050565b60006130a6602e83613b67565b91507f45524337323155524953746f726167653a2055524920736574206f66206e6f6e60008301527f6578697374656e7420746f6b656e0000000000000000000000000000000000006020830152604082019050919050565b600061310c600f83613b67565b91507f576527766520736f6c64206f75742100000000000000000000000000000000006000830152602082019050919050565b600061314c600283613b78565b91507f227d0000000000000000000000000000000000000000000000000000000000006000830152600282019050919050565b600061318c602083613b67565b91507f4552433732313a206d696e7420746f20746865207a65726f20616464726573736000830152602082019050919050565b60006131cc603183613b67565b91507f45524337323155524953746f726167653a2055524920717565727920666f722060008301527f6e6f6e6578697374656e7420746f6b656e0000000000000000000000000000006020830152604082019050919050565b6000613232602c83613b67565b91507f4552433732313a20617070726f76656420717565727920666f72206e6f6e657860008301527f697374656e7420746f6b656e00000000000000000000000000000000000000006020830152604082019050919050565b6000613298602983613b67565b91507f4552433732313a207472616e73666572206f6620746f6b656e2074686174206960008301527f73206e6f74206f776e00000000000000000000000000000000000000000000006020830152604082019050919050565b60006132fe602f83613b67565b91507f4552433732314d657461646174613a2055524920717565727920666f72206e6f60008301527f6e6578697374656e7420746f6b656e00000000000000000000000000000000006020830152604082019050919050565b6000613364600a83613b78565b91507f7b226e616d65223a2022000000000000000000000000000000000000000000006000830152600a82019050919050565b60006133a4602183613b67565b91507f4552433732313a20617070726f76616c20746f2063757272656e74206f776e6560008301527f72000000000000000000000000000000000000000000000000000000000000006020830152604082019050919050565b600061340a600a83613b78565b91507f46495253545f574f5244000000000000000000000000000000000000000000006000830152600a82019050919050565b600061344a601d83613b78565b91507f646174613a6170706c69636174696f6e2f6a736f6e3b6261736536342c0000006000830152601d82019050919050565b600061348a603183613b67565b91507f4552433732313a207472616e736665722063616c6c6572206973206e6f74206f60008301527f776e6572206e6f7220617070726f7665640000000000000000000000000000006020830152604082019050919050565b60006134f0600583613b78565b91507f434f4c4f520000000000000000000000000000000000000000000000000000006000830152600582019050919050565b61352c81613d02565b82525050565b600061353e8284612b13565b915081905092915050565b60006135558285612b13565b91506135618284612b13565b91508190509392505050565b60006135798286612b13565b91506135858285612b13565b91506135918284612b13565b9150819050949350505050565b60006135aa8287612bc4565b91506135b68286612b13565b91506135c28285612bc4565b91506135ce8284612b13565b91506135d982612f27565b915081905095945050505050565b60006135f282612ce9565b91506135fe8284612b13565b915081905092915050565b600061361482612e81565b91506136208284612b13565b915081905092915050565b600061363682613357565b91506136428285612b13565b915061364d82612dcf565b91506136598284612b13565b91506136648261313f565b91508190509392505050565b600061367b826133fd565b91506136878284612b13565b915081905092915050565b600061369d8261343d565b91506136a98284612b13565b915081905092915050565b60006136bf826134e3565b91506136cb8284612b13565b915081905092915050565b60006020820190506136eb6000830184612961565b92915050565b60006080820190506137066000830187612961565b6137136020830186612961565b6137206040830185613523565b81810360608301526137328184612a68565b905095945050505050565b60006060820190506137526000830186612961565b61375f6020830185613523565b818103604083015261377181846129e5565b9050949350505050565b600060208201905081810360008301526137958184612970565b905092915050565b60006020820190506137b26000830184612a59565b92915050565b600060208201905081810360008301526137d28184612ada565b905092915050565b600060608201905081810360008301526137f48186612ada565b90506138036020830185613523565b6138106040830184612961565b949350505050565b6000602082019050818103600083015261383181612c43565b9050919050565b6000602082019050818103600083015261385181612ca9565b9050919050565b6000602082019050818103600083015261387181612d29565b9050919050565b6000602082019050818103600083015261389181612d8f565b9050919050565b600060208201905081810360008301526138b181612ec1565b9050919050565b600060208201905081810360008301526138d181612f67565b9050919050565b600060208201905081810360008301526138f181612fcd565b9050919050565b6000602082019050818103600083015261391181613033565b9050919050565b6000602082019050818103600083015261393181613099565b9050919050565b60006020820190508181036000830152613951816130ff565b9050919050565b600060208201905081810360008301526139718161317f565b9050919050565b60006020820190508181036000830152613991816131bf565b9050919050565b600060208201905081810360008301526139b181613225565b9050919050565b600060208201905081810360008301526139d18161328b565b9050919050565b600060208201905081810360008301526139f1816132f1565b9050919050565b60006020820190508181036000830152613a1181613397565b9050919050565b60006020820190508181036000830152613a318161347d565b9050919050565b6000602082019050613a4d6000830184613523565b92915050565b6000604051905081810181811067ffffffffffffffff82111715613a7a57613a79613e87565b5b8060405250919050565b600067ffffffffffffffff821115613a9f57613a9e613e87565b5b601f19601f8301169050602081019050919050565b6000819050602082019050919050565b60008190508160005260206000209050919050565b60008190508160005260206000209050919050565b600081519050919050565b600081549050919050565b600081519050919050565b600081519050919050565b6000602082019050919050565b6000600182019050919050565b600082825260208201905092915050565b600082825260208201905092915050565b600082825260208201905092915050565b600082825260208201905092915050565b600081905092915050565b6000613b8e82613d02565b9150613b9983613d02565b9250827fffffffffffffffffffffffffffffffffffffffffffffffffffffffffffffffff03821115613bce57613bcd613dfa565b5b828201905092915050565b6000613be482613d02565b9150613bef83613d02565b925082613bff57613bfe613e29565b5b828204905092915050565b6000613c1582613d02565b9150613c2083613d02565b9250817fffffffffffffffffffffffffffffffffffffffffffffffffffffffffffffffff0483118215151615613c5957613c58613dfa565b5b828202905092915050565b6000613c6f82613d02565b9150613c7a83613d02565b925082821015613c8d57613c8c613dfa565b5b828203905092915050565b6000613ca382613ce2565b9050919050565b60008115159050919050565b60007fffffffff0000000000000000000000000000000000000000000000000000000082169050919050565b600073ffffffffffffffffffffffffffffffffffffffff82169050919050565b6000819050919050565b82818337600083830152505050565b60005b83811015613d39578082015181840152602081019050613d1e565b83811115613d48576000848401525b50505050565b60006002820490506001821680613d6657607f821691505b60208210811415613d7a57613d79613e58565b5b50919050565b6000613d8b82613d02565b91507fffffffffffffffffffffffffffffffffffffffffffffffffffffffffffffffff821415613dbe57613dbd613dfa565b5b600182019050919050565b6000613dd482613d02565b9150613ddf83613d02565b925082613def57613dee613e29565b5b828206905092915050565b7f4e487b7100000000000000000000000000000000000000000000000000000000600052601160045260246000fd5b7f4e487b7100000000000000000000000000000000000000000000000000000000600052601260045260246000fd5b7f4e487b7100000000000000000000000000000000000000000000000000000000600052602260045260246000fd5b7f4e487b7100000000000000000000000000000000000000000000000000000000600052604160045260246000fd5b6000601f19601f8301169050919050565b613ed081613c98565b8114613edb57600080fd5b50565b613ee781613caa565b8114613ef257600080fd5b50565b613efe81613cb6565b8114613f0957600080fd5b50565b613f1581613d02565b8114613f2057600080fd5b5056fe616e204e465420772f20494420257320686173206265656e206d696e74656420746f2025734142434445464748494a4b4c4d4e4f505152535455565758595a6162636465666768696a6b6c6d6e6f707172737475767778797a303132333435363738392b2fa2646970667358221220bf4fa2efc2ae53e72fc093a5252fc27a15d933a6891e6d32d63d9dfec1a80ffd64736f6c634300080000333c73766720786d6c6e733d27687474703a2f2f7777772e77332e6f72672f323030302f73766727207072657365727665417370656374526174696f3d27784d696e594d696e206d656574272076696577426f783d273020302033353020333530273e3c7374796c653e2e62617365207b2066696c6c3a2077686974653b20666f6e742d66616d696c793a2073657269663b20666f6e742d73697a653a20323470783b207d3c2f7374796c653e3c726563742077696474683d273130302527206865696768743d2731303025272066696c6c3d27272f3e3c7465787420783d273530252720793d273530252720636c6173733d27626173652720646f6d696e616e742d626173656c696e653d276d6964646c652720746578742d616e63686f723d276d6964646c65273e",
  "linkReferences": {},
  "deployedLinkReferences": {}
}