{
  "_format": "hh-sol-artifact-1",
  "contractName": "MyEpicNFT",
  "sourceName": "contracts/MyEpicNFT.sol",
  "abi": [
    {
      "inputs": [],
      "stateMutability": "nonpayable",
      "type": "constructor"
    },
    {
      "anonymous": false,
      "inputs": [
        {
          "indexed": true,
          "internalType": "address",
          "name": "owner",
          "type": "address"
        },
        {
          "indexed": true,
          "internalType": "address",
          "name": "approved",
          "type": "address"
        },
        {
          "indexed": true,
          "internalType": "uint256",
          "name": "tokenId",
          "type": "uint256"
        }
      ],
      "name": "Approval",
      "type": "event"
    },
    {
      "anonymous": false,
      "inputs": [
        {
          "indexed": true,
          "internalType": "address",
          "name": "owner",
          "type": "address"
        },
        {
          "indexed": true,
          "internalType": "address",
          "name": "operator",
          "type": "address"
        },
        {
          "indexed": false,
          "internalType": "bool",
          "name": "approved",
          "type": "bool"
        }
      ],
      "name": "ApprovalForAll",
      "type": "event"
    },
    {
      "anonymous": false,
      "inputs": [
        {
          "indexed": false,
          "internalType": "address",
          "name": "sender",
          "type": "address"
        },
        {
          "indexed": false,
          "internalType": "uint256",
          "name": "tokenId",
          "type": "uint256"
        }
      ],
      "name": "NewEpicNFTMinted",
      "type": "event"
    },
    {
      "anonymous": false,
      "inputs": [
        {
          "indexed": true,
          "internalType": "address",
          "name": "from",
          "type": "address"
        },
        {
          "indexed": true,
          "internalType": "address",
          "name": "to",
          "type": "address"
        },
        {
          "indexed": true,
          "internalType": "uint256",
          "name": "tokenId",
          "type": "uint256"
        }
      ],
      "name": "Transfer",
      "type": "event"
    },
    {
      "inputs": [
        {
          "internalType": "address",
          "name": "to",
          "type": "address"
        },
        {
          "internalType": "uint256",
          "name": "tokenId",
          "type": "uint256"
        }
      ],
      "name": "approve",
      "outputs": [],
      "stateMutability": "nonpayable",
      "type": "function"
    },
    {
      "inputs": [
        {
          "internalType": "address",
          "name": "owner",
          "type": "address"
        }
      ],
      "name": "balanceOf",
      "outputs": [
        {
          "internalType": "uint256",
          "name": "",
          "type": "uint256"
        }
      ],
      "stateMutability": "view",
      "type": "function"
    },
    {
      "inputs": [
        {
          "internalType": "uint256",
          "name": "tokenId",
          "type": "uint256"
        }
      ],
      "name": "getApproved",
      "outputs": [
        {
          "internalType": "address",
          "name": "",
          "type": "address"
        }
      ],
      "stateMutability": "view",
      "type": "function"
    },
    {
      "inputs": [],
      "name": "getNumberOfNFTMinted",
      "outputs": [
        {
          "internalType": "uint256",
          "name": "",
          "type": "uint256"
        }
      ],
      "stateMutability": "view",
      "type": "function"
    },
    {
      "inputs": [
        {
          "internalType": "address",
          "name": "owner",
          "type": "address"
        },
        {
          "internalType": "address",
          "name": "operator",
          "type": "address"
        }
      ],
      "name": "isApprovedForAll",
      "outputs": [
        {
          "internalType": "bool",
          "name": "",
          "type": "bool"
        }
      ],
      "stateMutability": "view",
      "type": "function"
    },
    {
      "inputs": [],
      "name": "makeAnEpicNFT",
      "outputs": [],
      "stateMutability": "nonpayable",
      "type": "function"
    },
    {
      "inputs": [],
      "name": "name",
      "outputs": [
        {
          "internalType": "string",
          "name": "",
          "type": "string"
        }
      ],
      "stateMutability": "view",
      "type": "function"
    },
    {
      "inputs": [
        {
          "internalType": "uint256",
          "name": "tokenId",
          "type": "uint256"
        }
      ],
      "name": "ownerOf",
      "outputs": [
        {
          "internalType": "address",
          "name": "",
          "type": "address"
        }
      ],
      "stateMutability": "view",
      "type": "function"
    },
    {
      "inputs": [
        {
          "internalType": "uint256",
          "name": "tokenId",
          "type": "uint256"
        }
      ],
      "name": "pickRandomColor",
      "outputs": [
        {
          "internalType": "string",
          "name": "",
          "type": "string"
        }
      ],
      "stateMutability": "view",
      "type": "function"
    },
    {
      "inputs": [
        {
          "internalType": "uint256",
          "name": "tokenId",
          "type": "uint256"
        }
      ],
      "name": "pickRandomFirstWord",
      "outputs": [
        {
          "internalType": "string",
          "name": "",
          "type": "string"
        }
      ],
      "stateMutability": "view",
      "type": "function"
    },
    {
      "inputs": [
        {
          "internalType": "uint256",
          "name": "tokenId",
          "type": "uint256"
        }
      ],
      "name": "pickRandomSecondWord",
      "outputs": [
        {
          "internalType": "string",
          "name": "",
          "type": "string"
        }
      ],
      "stateMutability": "view",
      "type": "function"
    },
    {
      "inputs": [
        {
          "internalType": "uint256",
          "name": "tokenId",
          "type": "uint256"
        }
      ],
      "name": "pickRandomThirdWord",
      "outputs": [
        {
          "internalType": "string",
          "name": "",
          "type": "string"
        }
      ],
      "stateMutability": "view",
      "type": "function"
    },
    {
      "inputs": [
        {
          "internalType": "address",
          "name": "from",
          "type": "address"
        },
        {
          "internalType": "address",
          "name": "to",
          "type": "address"
        },
        {
          "internalType": "uint256",
          "name": "tokenId",
          "type": "uint256"
        }
      ],
      "name": "safeTransferFrom",
      "outputs": [],
      "stateMutability": "nonpayable",
      "type": "function"
    },
    {
      "inputs": [
        {
          "internalType": "address",
          "name": "from",
          "type": "address"
        },
        {
          "internalType": "address",
          "name": "to",
          "type": "address"
        },
        {
          "internalType": "uint256",
          "name": "tokenId",
          "type": "uint256"
        },
        {
          "internalType": "bytes",
          "name": "_data",
          "type": "bytes"
        }
      ],
      "name": "safeTransferFrom",
      "outputs": [],
      "stateMutability": "nonpayable",
      "type": "function"
    },
    {
      "inputs": [
        {
          "internalType": "address",
          "name": "operator",
          "type": "address"
        },
        {
          "internalType": "bool",
          "name": "approved",
          "type": "bool"
        }
      ],
      "name": "setApprovalForAll",
      "outputs": [],
      "stateMutability": "nonpayable",
      "type": "function"
    },
    {
      "inputs": [
        {
          "internalType": "bytes4",
          "name": "interfaceId",
          "type": "bytes4"
        }
      ],
      "name": "supportsInterface",
      "outputs": [
        {
          "internalType": "bool",
          "name": "",
          "type": "bool"
        }
      ],
      "stateMutability": "view",
      "type": "function"
    },
    {
      "inputs": [],
      "name": "symbol",
      "outputs": [
        {
          "internalType": "string",
          "name": "",
          "type": "string"
        }
      ],
      "stateMutability": "view",
      "type": "function"
    },
    {
      "inputs": [
        {
          "internalType": "uint256",
          "name": "tokenId",
          "type": "uint256"
        }
      ],
      "name": "tokenURI",
      "outputs": [
        {
          "internalType": "string",
          "name": "",
          "type": "string"
        }
      ],
      "stateMutability": "view",
      "type": "function"
    },
    {
      "inputs": [
        {
          "internalType": "address",
          "name": "from",
          "type": "address"
        },
        {
          "internalType": "address",
          "name": "to",
          "type": "address"
        },
        {
          "internalType": "uint256",
          "name": "tokenId",
          "type": "uint256"
        }
      ],
      "name": "transferFrom",
      "outputs": [],
      "stateMutability": "nonpayable",
      "type": "function"
    }
  ],
  "bytecode": "0x608060405260405180610100016040528060d381526020016200462e60d3913960099080519060200190620000369291906200082c565b506040518060800160405280605681526020016200470160569139600a9080519060200190620000689291906200082c565b506040518060c001604052806040518060400160405280600481526020017f444f47450000000000000000000000000000000000000000000000000000000081525081526020016040518060400160405280600381526020017f425443000000000000000000000000000000000000000000000000000000000081525081526020016040518060400160405280600481526020017f4c554e410000000000000000000000000000000000000000000000000000000081525081526020016040518060400160405280600381526020017f444f54000000000000000000000000000000000000000000000000000000000081525081526020016040518060400160405280600381526020017f455448000000000000000000000000000000000000000000000000000000000081525081526020016040518060400160405280600381526020017f534f4c0000000000000000000000000000000000000000000000000000000000815250815250600b906006620001e6929190620008bd565b506040518060c001604052806040518060400160405280600481526020017f4d6172730000000000000000000000000000000000000000000000000000000081525081526020016040518060400160405280600481526020017f4d6f6f6e0000000000000000000000000000000000000000000000000000000081525081526020016040518060400160405280600781526020017f4d6572637572790000000000000000000000000000000000000000000000000081525081526020016040518060400160405280600781526020017f4a7570697465720000000000000000000000000000000000000000000000000081525081526020016040518060400160405280600681526020017f53617475726e000000000000000000000000000000000000000000000000000081525081526020016040518060400160405280600781526020017f4e657074756e6500000000000000000000000000000000000000000000000000815250815250600c90600662000364929190620008bd565b506040518060c001604052806040518060400160405280600481526020017f436f6b650000000000000000000000000000000000000000000000000000000081525081526020016040518060400160405280600481526020017f426565720000000000000000000000000000000000000000000000000000000081525081526020016040518060400160405280600881526020017f4b6f6d627563686100000000000000000000000000000000000000000000000081525081526020016040518060400160405280600481526020017f57696e650000000000000000000000000000000000000000000000000000000081525081526020016040518060400160405280600581526020017f576174657200000000000000000000000000000000000000000000000000000081525081526020016040518060400160405280600581526020017f4a75696365000000000000000000000000000000000000000000000000000000815250815250600d906006620004e2929190620008bd565b506040518060c001604052806040518060400160405280600381526020017f726564000000000000000000000000000000000000000000000000000000000081525081526020016040518060400160405280600781526020017f233038433241380000000000000000000000000000000000000000000000000081525081526020016040518060400160405280600581526020017f626c61636b00000000000000000000000000000000000000000000000000000081525081526020016040518060400160405280600681526020017f79656c6c6f77000000000000000000000000000000000000000000000000000081525081526020016040518060400160405280600481526020017f626c75650000000000000000000000000000000000000000000000000000000081525081526020016040518060400160405280600581526020017f677265656e000000000000000000000000000000000000000000000000000000815250815250600e90600662000660929190620008bd565b503480156200066e57600080fd5b506040518060400160405280600981526020017f5371756172654e465400000000000000000000000000000000000000000000008152506040518060400160405280600681526020017f53515541524500000000000000000000000000000000000000000000000000008152508160009080519060200190620006f39291906200082c565b5080600190805190602001906200070c9291906200082c565b5050506200075a6040518060400160405280601e81526020017f54686973206973206d79204e465420636f6e74726163742e20576f61682100008152506200076060201b620014251760201c565b62000ade565b6200080081604051602401620007779190620009f2565b6040516020818303038152906040527f41304fac000000000000000000000000000000000000000000000000000000007bffffffffffffffffffffffffffffffffffffffffffffffffffffffff19166020820180517bffffffffffffffffffffffffffffffffffffffffffffffffffffffff83818316178352505050506200080360201b60201c565b50565b60008151905060006a636f6e736f6c652e6c6f679050602083016000808483855afa5050505050565b8280546200083a9062000a68565b90600052602060002090601f0160209004810192826200085e5760008555620008aa565b82601f106200087957805160ff1916838001178555620008aa565b82800160010185558215620008aa579182015b82811115620008a95782518255916020019190600101906200088c565b5b509050620008b9919062000924565b5090565b82805482825590600052602060002090810192821562000911579160200282015b8281111562000910578251829080519060200190620008ff9291906200082c565b5091602001919060010190620008de565b5b50905062000920919062000943565b5090565b5b808211156200093f57600081600090555060010162000925565b5090565b5b808211156200096757600081816200095d91906200096b565b5060010162000944565b5090565b508054620009799062000a68565b6000825580601f106200098d5750620009ae565b601f016020900490600052602060002090810190620009ad919062000924565b5b50565b6000620009be8262000a16565b620009ca818562000a21565b9350620009dc81856020860162000a32565b620009e78162000acd565b840191505092915050565b6000602082019050818103600083015262000a0e8184620009b1565b905092915050565b600081519050919050565b600082825260208201905092915050565b60005b8381101562000a5257808201518184015260208101905062000a35565b8381111562000a62576000848401525b50505050565b6000600282049050600182168062000a8157607f821691505b6020821081141562000a985762000a9762000a9e565b5b50919050565b7f4e487b7100000000000000000000000000000000000000000000000000000000600052602260045260246000fd5b6000601f19601f8301169050919050565b613b408062000aee6000396000f3fe608060405234801561001057600080fd5b50600436106101215760003560e01c806370a08231116100ad578063c575757a11610071578063c575757a1461033e578063c87b56dd1461036e578063de9d132f1461039e578063e985e9c5146103a8578063eb1c4273146103d857610121565b806370a082311461028857806395d89b41146102b8578063a22cb465146102d6578063b187301f146102f2578063b88d4fde1461032257610121565b806323b872dd116100f457806323b872dd146101c05780632de38d68146101dc57806342842e0e1461020c578063514dc8c6146102285780636352211e1461025857610121565b806301ffc9a71461012657806306fdde0314610156578063081812fc14610174578063095ea7b3146101a4575b600080fd5b610140600480360381019061013b91906126b8565b6103f6565b60405161014d9190613396565b60405180910390f35b61015e6104d8565b60405161016b91906133b1565b60405180910390f35b61018e6004803603810190610189919061270a565b61056a565b60405161019b9190613306565b60405180910390f35b6101be60048036038101906101b9919061267c565b6105ef565b005b6101da60048036038101906101d59190612576565b610707565b005b6101f660048036038101906101f1919061270a565b610767565b60405161020391906133b1565b60405180910390f35b61022660048036038101906102219190612576565b610885565b005b610242600480360381019061023d919061270a565b6108a5565b60405161024f91906133b1565b60405180910390f35b610272600480360381019061026d919061270a565b6109c3565b60405161027f9190613306565b60405180910390f35b6102a2600480360381019061029d9190612511565b610a75565b6040516102af9190613631565b60405180910390f35b6102c0610b2d565b6040516102cd91906133b1565b60405180910390f35b6102f060048036038101906102eb9190612640565b610bbf565b005b61030c6004803603810190610307919061270a565b610d40565b60405161031991906133b1565b60405180910390f35b61033c600480360381019061033791906125c5565b610e5e565b005b6103586004803603810190610353919061270a565b610ec0565b60405161036591906133b1565b60405180910390f35b6103886004803603810190610383919061270a565b610fde565b60405161039591906133b1565b60405180910390f35b6103a6611130565b005b6103c260048036038101906103bd919061253a565b611387565b6040516103cf9190613396565b60405180910390f35b6103e061141b565b6040516103ed9190613631565b60405180910390f35b60007f80ac58cd000000000000000000000000000000000000000000000000000000007bffffffffffffffffffffffffffffffffffffffffffffffffffffffff1916827bffffffffffffffffffffffffffffffffffffffffffffffffffffffff191614806104c157507f5b5e139f000000000000000000000000000000000000000000000000000000007bffffffffffffffffffffffffffffffffffffffffffffffffffffffff1916827bffffffffffffffffffffffffffffffffffffffffffffffffffffffff1916145b806104d157506104d0826114be565b5b9050919050565b6060600080546104e7906138d0565b80601f0160208091040260200160405190810160405280929190818152602001828054610513906138d0565b80156105605780601f1061053557610100808354040283529160200191610560565b820191906000526020600020905b81548152906001019060200180831161054357829003601f168201915b5050505050905090565b600061057582611528565b6105b4576040517f08c379a00000000000000000000000000000000000000000000000000000000081526004016105ab90613591565b60405180910390fd5b6004600083815260200190815260200160002060009054906101000a900473ffffffffffffffffffffffffffffffffffffffff169050919050565b60006105fa826109c3565b90508073ffffffffffffffffffffffffffffffffffffffff168373ffffffffffffffffffffffffffffffffffffffff16141561066b576040517f08c379a0000000000000000000000000000000000000000000000000000000008152600401610662906135f1565b60405180910390fd5b8073ffffffffffffffffffffffffffffffffffffffff1661068a611594565b73ffffffffffffffffffffffffffffffffffffffff1614806106b957506106b8816106b3611594565b611387565b5b6106f8576040517f08c379a00000000000000000000000000000000000000000000000000000000081526004016106ef906134b1565b60405180910390fd5b610702838361159c565b505050565b610718610712611594565b82611655565b610757576040517f08c379a000000000000000000000000000000000000000000000000000000000815260040161074e90613611565b60405180910390fd5b610762838383611733565b505050565b6060600061079b6107778461198f565b60405160200161078791906132a0565b604051602081830303815290604052611b3c565b9050600b80549050816107ae919061394b565b9050600b81815481106107ea577f4e487b7100000000000000000000000000000000000000000000000000000000600052603260045260246000fd5b9060005260206000200180546107ff906138d0565b80601f016020809104026020016040519081016040528092919081815260200182805461082b906138d0565b80156108785780601f1061084d57610100808354040283529160200191610878565b820191906000526020600020905b81548152906001019060200180831161085b57829003601f168201915b5050505050915050919050565b6108a083838360405180602001604052806000815250610e5e565b505050565b606060006108d96108b58461198f565b6040516020016108c591906132e4565b604051602081830303815290604052611b3c565b9050600e80549050816108ec919061394b565b9050600e8181548110610928577f4e487b7100000000000000000000000000000000000000000000000000000000600052603260045260246000fd5b90600052602060002001805461093d906138d0565b80601f0160208091040260200160405190810160405280929190818152602001828054610969906138d0565b80156109b65780601f1061098b576101008083540402835291602001916109b6565b820191906000526020600020905b81548152906001019060200180831161099957829003601f168201915b5050505050915050919050565b6000806002600084815260200190815260200160002060009054906101000a900473ffffffffffffffffffffffffffffffffffffffff169050600073ffffffffffffffffffffffffffffffffffffffff168173ffffffffffffffffffffffffffffffffffffffff161415610a6c576040517f08c379a0000000000000000000000000000000000000000000000000000000008152600401610a63906134f1565b60405180910390fd5b80915050919050565b60008073ffffffffffffffffffffffffffffffffffffffff168273ffffffffffffffffffffffffffffffffffffffff161415610ae6576040517f08c379a0000000000000000000000000000000000000000000000000000000008152600401610add906134d1565b60405180910390fd5b600360008373ffffffffffffffffffffffffffffffffffffffff1673ffffffffffffffffffffffffffffffffffffffff168152602001908152602001600020549050919050565b606060018054610b3c906138d0565b80601f0160208091040260200160405190810160405280929190818152602001828054610b68906138d0565b8015610bb55780601f10610b8a57610100808354040283529160200191610bb5565b820191906000526020600020905b815481529060010190602001808311610b9857829003601f168201915b5050505050905090565b610bc7611594565b73ffffffffffffffffffffffffffffffffffffffff168273ffffffffffffffffffffffffffffffffffffffff161415610c35576040517f08c379a0000000000000000000000000000000000000000000000000000000008152600401610c2c90613471565b60405180910390fd5b8060056000610c42611594565b73ffffffffffffffffffffffffffffffffffffffff1673ffffffffffffffffffffffffffffffffffffffff16815260200190815260200160002060008473ffffffffffffffffffffffffffffffffffffffff1673ffffffffffffffffffffffffffffffffffffffff16815260200190815260200160002060006101000a81548160ff0219169083151502179055508173ffffffffffffffffffffffffffffffffffffffff16610cef611594565b73ffffffffffffffffffffffffffffffffffffffff167f17307eab39ab6107e8899845ad3d59bd9653f200f220920489ca2b5937696c3183604051610d349190613396565b60405180910390a35050565b60606000610d74610d508461198f565b604051602001610d609190613239565b604051602081830303815290604052611b3c565b9050600c8054905081610d87919061394b565b9050600c8181548110610dc3577f4e487b7100000000000000000000000000000000000000000000000000000000600052603260045260246000fd5b906000526020600020018054610dd8906138d0565b80601f0160208091040260200160405190810160405280929190818152602001828054610e04906138d0565b8015610e515780601f10610e2657610100808354040283529160200191610e51565b820191906000526020600020905b815481529060010190602001808311610e3457829003601f168201915b5050505050915050919050565b610e6f610e69611594565b83611655565b610eae576040517f08c379a0000000000000000000000000000000000000000000000000000000008152600401610ea590613611565b60405180910390fd5b610eba84848484611b6f565b50505050565b60606000610ef4610ed08461198f565b604051602001610ee09190613217565b604051602081830303815290604052611b3c565b9050600d8054905081610f07919061394b565b9050600d8181548110610f43577f4e487b7100000000000000000000000000000000000000000000000000000000600052603260045260246000fd5b906000526020600020018054610f58906138d0565b80601f0160208091040260200160405190810160405280929190818152602001828054610f84906138d0565b8015610fd15780601f10610fa657610100808354040283529160200191610fd1565b820191906000526020600020905b815481529060010190602001808311610fb457829003601f168201915b5050505050915050919050565b6060610fe982611528565b611028576040517f08c379a000000000000000000000000000000000000000000000000000000000815260040161101f90613571565b60405180910390fd5b6000600660008481526020019081526020016000208054611048906138d0565b80601f0160208091040260200160405190810160405280929190818152602001828054611074906138d0565b80156110c15780601f10611096576101008083540402835291602001916110c1565b820191906000526020600020905b8154815290600101906020018083116110a457829003601f168201915b5050505050905060006110d2611bcb565b90506000815114156110e857819250505061112b565b60008251111561111d578082604051602001611105929190613179565b6040516020818303038152906040529250505061112b565b61112684611be2565b925050505b919050565b603260085410611175576040517f08c379a000000000000000000000000000000000000000000000000000000000815260040161116c90613531565b60405180910390fd5b60006111816007611c89565b9050600061118e82610767565b9050600061119b83610d40565b905060006111a884610ec0565b905060008383836040516020016111c19392919061319d565b604051602081830303815290604052905060006111dd866108a5565b90506000600982600a856040516020016111fa94939291906131ce565b6040516020818303038152906040529050600061123f8461121a84611c97565b60405160200161122b92919061325b565b604051602081830303815290604052611c97565b905060008160405160200161125491906132c2565b60405160208183030381529060405290506112a36040518060400160405280601581526020017f0a2d2d2d2d2d2d2d2d2d2d2d2d2d2d2d2d2d2d2d2d0000000000000000000000815250611425565b6112ac83611425565b6112ea6040518060400160405280601581526020017f2d2d2d2d2d2d2d2d2d2d2d2d2d2d2d2d2d2d2d2d0a0000000000000000000000815250611425565b6112f4338a611e55565b6112fe8982611e73565b611321604051806060016040528060258152602001613aa6602591398a33611ee7565b61132b6007611f86565b6008600081548092919061133e90613902565b91905055507febb98688741ffa4c7589bf325de30cf7becb63de567842e1ccdb6cb949fdc82c338a60405161137492919061336d565b60405180910390a1505050505050505050565b6000600560008473ffffffffffffffffffffffffffffffffffffffff1673ffffffffffffffffffffffffffffffffffffffff16815260200190815260200160002060008373ffffffffffffffffffffffffffffffffffffffff1673ffffffffffffffffffffffffffffffffffffffff16815260200190815260200160002060009054906101000a900460ff16905092915050565b6000600854905090565b6114bb8160405160240161143991906133b1565b6040516020818303038152906040527f41304fac000000000000000000000000000000000000000000000000000000007bffffffffffffffffffffffffffffffffffffffffffffffffffffffff19166020820180517bffffffffffffffffffffffffffffffffffffffffffffffffffffffff8381831617835250505050611f9c565b50565b60007f01ffc9a7000000000000000000000000000000000000000000000000000000007bffffffffffffffffffffffffffffffffffffffffffffffffffffffff1916827bffffffffffffffffffffffffffffffffffffffffffffffffffffffff1916149050919050565b60008073ffffffffffffffffffffffffffffffffffffffff166002600084815260200190815260200160002060009054906101000a900473ffffffffffffffffffffffffffffffffffffffff1673ffffffffffffffffffffffffffffffffffffffff1614159050919050565b600033905090565b816004600083815260200190815260200160002060006101000a81548173ffffffffffffffffffffffffffffffffffffffff021916908373ffffffffffffffffffffffffffffffffffffffff160217905550808273ffffffffffffffffffffffffffffffffffffffff1661160f836109c3565b73ffffffffffffffffffffffffffffffffffffffff167f8c5be1e5ebec7d5bd14f71427d1e84f3dd0314c0f7b2291e5b200ac8c7c3b92560405160405180910390a45050565b600061166082611528565b61169f576040517f08c379a000000000000000000000000000000000000000000000000000000000815260040161169690613491565b60405180910390fd5b60006116aa836109c3565b90508073ffffffffffffffffffffffffffffffffffffffff168473ffffffffffffffffffffffffffffffffffffffff16148061171957508373ffffffffffffffffffffffffffffffffffffffff166117018461056a565b73ffffffffffffffffffffffffffffffffffffffff16145b8061172a57506117298185611387565b5b91505092915050565b8273ffffffffffffffffffffffffffffffffffffffff16611753826109c3565b73ffffffffffffffffffffffffffffffffffffffff16146117a9576040517f08c379a00000000000000000000000000000000000000000000000000000000081526004016117a0906135b1565b60405180910390fd5b600073ffffffffffffffffffffffffffffffffffffffff168273ffffffffffffffffffffffffffffffffffffffff161415611819576040517f08c379a000000000000000000000000000000000000000000000000000000000815260040161181090613451565b60405180910390fd5b611824838383611fc5565b61182f60008261159c565b6001600360008573ffffffffffffffffffffffffffffffffffffffff1673ffffffffffffffffffffffffffffffffffffffff168152602001908152602001600020600082825461187f91906137e6565b925050819055506001600360008473ffffffffffffffffffffffffffffffffffffffff1673ffffffffffffffffffffffffffffffffffffffff16815260200190815260200160002060008282546118d69190613705565b92505081905550816002600083815260200190815260200160002060006101000a81548173ffffffffffffffffffffffffffffffffffffffff021916908373ffffffffffffffffffffffffffffffffffffffff160217905550808273ffffffffffffffffffffffffffffffffffffffff168473ffffffffffffffffffffffffffffffffffffffff167fddf252ad1be2c89b69c2b068fc378daa952ba7f163c4a11628f55a4df523b3ef60405160405180910390a4505050565b606060008214156119d7576040518060400160405280600181526020017f30000000000000000000000000000000000000000000000000000000000000008152509050611b37565b600082905060005b60008214611a095780806119f290613902565b915050600a82611a02919061375b565b91506119df565b60008167ffffffffffffffff811115611a4b577f4e487b7100000000000000000000000000000000000000000000000000000000600052604160045260246000fd5b6040519080825280601f01601f191660200182016040528015611a7d5781602001600182028036833780820191505090505b5090505b60008514611b3057600182611a9691906137e6565b9150600a85611aa5919061394b565b6030611ab19190613705565b60f81b818381518110611aed577f4e487b7100000000000000000000000000000000000000000000000000000000600052603260045260246000fd5b60200101907effffffffffffffffffffffffffffffffffffffffffffffffffffffffffffff1916908160001a905350600a85611b29919061375b565b9450611a81565b8093505050505b919050565b600081604051602001611b4f9190613162565b6040516020818303038152906040528051906020012060001c9050919050565b611b7a848484611733565b611b8684848484611fca565b611bc5576040517f08c379a0000000000000000000000000000000000000000000000000000000008152600401611bbc90613411565b60405180910390fd5b50505050565b606060405180602001604052806000815250905090565b6060611bed82611528565b611c2c576040517f08c379a0000000000000000000000000000000000000000000000000000000008152600401611c23906135d1565b60405180910390fd5b6000611c36611bcb565b90506000815111611c565760405180602001604052806000815250611c81565b80611c608461198f565b604051602001611c71929190613179565b6040516020818303038152906040525b915050919050565b600081600001549050919050565b60606000825190506000811415611cc05760405180602001604052806000815250915050611e50565b60006003600283611cd19190613705565b611cdb919061375b565b6004611ce7919061378c565b90506000602082611cf89190613705565b67ffffffffffffffff811115611d37577f4e487b7100000000000000000000000000000000000000000000000000000000600052604160045260246000fd5b6040519080825280601f01601f191660200182016040528015611d695781602001600182028036833780820191505090505b5090506000604051806060016040528060408152602001613acb604091399050600181016020830160005b86811015611e0d5760038101905062ffffff818a015116603f8160121c168401518060081b905060ff603f83600c1c1686015116810190508060081b905060ff603f8360061c1686015116810190508060081b905060ff603f831686015116810190508060e01b90508084526004840193505050611d94565b506003860660018114611e275760028114611e3757611e42565b613d3d60f01b6002830352611e42565b603d60f81b60018303525b508484525050819450505050505b919050565b611e6f828260405180602001604052806000815250612161565b5050565b611e7c82611528565b611ebb576040517f08c379a0000000000000000000000000000000000000000000000000000000008152600401611eb290613511565b60405180910390fd5b80600660008481526020019081526020016000209080519060200190611ee292919061239d565b505050565b611f81838383604051602401611eff939291906133d3565b6040516020818303038152906040527fe3849f79000000000000000000000000000000000000000000000000000000007bffffffffffffffffffffffffffffffffffffffffffffffffffffffff19166020820180517bffffffffffffffffffffffffffffffffffffffffffffffffffffffff8381831617835250505050611f9c565b505050565b6001816000016000828254019250508190555050565b60008151905060006a636f6e736f6c652e6c6f679050602083016000808483855afa5050505050565b505050565b6000611feb8473ffffffffffffffffffffffffffffffffffffffff166121bc565b15612154578373ffffffffffffffffffffffffffffffffffffffff1663150b7a02612014611594565b8786866040518563ffffffff1660e01b81526004016120369493929190613321565b602060405180830381600087803b15801561205057600080fd5b505af192505050801561208157506040513d601f19601f8201168201806040525081019061207e91906126e1565b60015b612104573d80600081146120b1576040519150601f19603f3d011682016040523d82523d6000602084013e6120b6565b606091505b506000815114156120fc576040517f08c379a00000000000000000000000000000000000000000000000000000000081526004016120f390613411565b60405180910390fd5b805181602001fd5b63150b7a0260e01b7bffffffffffffffffffffffffffffffffffffffffffffffffffffffff1916817bffffffffffffffffffffffffffffffffffffffffffffffffffffffff191614915050612159565b600190505b949350505050565b61216b83836121cf565b6121786000848484611fca565b6121b7576040517f08c379a00000000000000000000000000000000000000000000000000000000081526004016121ae90613411565b60405180910390fd5b505050565b600080823b905060008111915050919050565b600073ffffffffffffffffffffffffffffffffffffffff168273ffffffffffffffffffffffffffffffffffffffff16141561223f576040517f08c379a000000000000000000000000000000000000000000000000000000000815260040161223690613551565b60405180910390fd5b61224881611528565b15612288576040517f08c379a000000000000000000000000000000000000000000000000000000000815260040161227f90613431565b60405180910390fd5b61229460008383611fc5565b6001600360008473ffffffffffffffffffffffffffffffffffffffff1673ffffffffffffffffffffffffffffffffffffffff16815260200190815260200160002060008282546122e49190613705565b92505081905550816002600083815260200190815260200160002060006101000a81548173ffffffffffffffffffffffffffffffffffffffff021916908373ffffffffffffffffffffffffffffffffffffffff160217905550808273ffffffffffffffffffffffffffffffffffffffff16600073ffffffffffffffffffffffffffffffffffffffff167fddf252ad1be2c89b69c2b068fc378daa952ba7f163c4a11628f55a4df523b3ef60405160405180910390a45050565b8280546123a9906138d0565b90600052602060002090601f0160209004810192826123cb5760008555612412565b82601f106123e457805160ff1916838001178555612412565b82800160010185558215612412579182015b828111156124115782518255916020019190600101906123f6565b5b50905061241f9190612423565b5090565b5b8082111561243c576000816000905550600101612424565b5090565b600061245361244e8461367d565b61364c565b90508281526020810184848401111561246b57600080fd5b61247684828561388e565b509392505050565b60008135905061248d81613a49565b92915050565b6000813590506124a281613a60565b92915050565b6000813590506124b781613a77565b92915050565b6000815190506124cc81613a77565b92915050565b600082601f8301126124e357600080fd5b81356124f3848260208601612440565b91505092915050565b60008135905061250b81613a8e565b92915050565b60006020828403121561252357600080fd5b60006125318482850161247e565b91505092915050565b6000806040838503121561254d57600080fd5b600061255b8582860161247e565b925050602061256c8582860161247e565b9150509250929050565b60008060006060848603121561258b57600080fd5b60006125998682870161247e565b93505060206125aa8682870161247e565b92505060406125bb868287016124fc565b9150509250925092565b600080600080608085870312156125db57600080fd5b60006125e98782880161247e565b94505060206125fa8782880161247e565b935050604061260b878288016124fc565b925050606085013567ffffffffffffffff81111561262857600080fd5b612634878288016124d2565b91505092959194509250565b6000806040838503121561265357600080fd5b60006126618582860161247e565b925050602061267285828601612493565b9150509250929050565b6000806040838503121561268f57600080fd5b600061269d8582860161247e565b92505060206126ae858286016124fc565b9150509250929050565b6000602082840312156126ca57600080fd5b60006126d8848285016124a8565b91505092915050565b6000602082840312156126f357600080fd5b6000612701848285016124bd565b91505092915050565b60006020828403121561271c57600080fd5b600061272a848285016124fc565b91505092915050565b61273c8161381a565b82525050565b61274b8161382c565b82525050565b600061275c826136c2565b61276681856136d8565b935061277681856020860161389d565b61277f81613a38565b840191505092915050565b6000612795826136cd565b61279f81856136e9565b93506127af81856020860161389d565b6127b881613a38565b840191505092915050565b60006127ce826136cd565b6127d881856136fa565b93506127e881856020860161389d565b80840191505092915050565b60008154612801816138d0565b61280b81866136fa565b9450600182166000811461282657600181146128375761286a565b60ff1983168652818601935061286a565b612840856136ad565b60005b8381101561286257815481890152600182019150602081019050612843565b838801955050505b50505092915050565b60006128806032836136e9565b91507f4552433732313a207472616e7366657220746f206e6f6e20455243373231526560008301527f63656976657220696d706c656d656e74657200000000000000000000000000006020830152604082019050919050565b60006128e6601c836136e9565b91507f4552433732313a20746f6b656e20616c7265616479206d696e746564000000006000830152602082019050919050565b6000612926600a836136fa565b91507f54484952445f574f5244000000000000000000000000000000000000000000006000830152600a82019050919050565b60006129666024836136e9565b91507f4552433732313a207472616e7366657220746f20746865207a65726f2061646460008301527f72657373000000000000000000000000000000000000000000000000000000006020830152604082019050919050565b60006129cc6019836136e9565b91507f4552433732313a20617070726f766520746f2063616c6c6572000000000000006000830152602082019050919050565b6000612a0c6063836136fa565b91507f222c20226465736372697074696f6e223a20224120686967686c79206163636c60008301527f61696d656420636f6c6c656374696f6e206f6620737175617265732e222c202260208301527f696d616765223a2022646174613a696d6167652f7376672b786d6c3b6261736560408301527f36342c00000000000000000000000000000000000000000000000000000000006060830152606382019050919050565b6000612abe600b836136fa565b91507f5345434f4e445f574f52440000000000000000000000000000000000000000006000830152600b82019050919050565b6000612afe602c836136e9565b91507f4552433732313a206f70657261746f7220717565727920666f72206e6f6e657860008301527f697374656e7420746f6b656e00000000000000000000000000000000000000006020830152604082019050919050565b6000612b64600d836136fa565b91507f3c2f746578743e3c2f7376673e000000000000000000000000000000000000006000830152600d82019050919050565b6000612ba46038836136e9565b91507f4552433732313a20617070726f76652063616c6c6572206973206e6f74206f7760008301527f6e6572206e6f7220617070726f76656420666f7220616c6c00000000000000006020830152604082019050919050565b6000612c0a602a836136e9565b91507f4552433732313a2062616c616e636520717565727920666f7220746865207a6560008301527f726f2061646472657373000000000000000000000000000000000000000000006020830152604082019050919050565b6000612c706029836136e9565b91507f4552433732313a206f776e657220717565727920666f72206e6f6e657869737460008301527f656e7420746f6b656e00000000000000000000000000000000000000000000006020830152604082019050919050565b6000612cd6602e836136e9565b91507f45524337323155524953746f726167653a2055524920736574206f66206e6f6e60008301527f6578697374656e7420746f6b656e0000000000000000000000000000000000006020830152604082019050919050565b6000612d3c600f836136e9565b91507f576527766520736f6c64206f75742100000000000000000000000000000000006000830152602082019050919050565b6000612d7c6002836136fa565b91507f227d0000000000000000000000000000000000000000000000000000000000006000830152600282019050919050565b6000612dbc6020836136e9565b91507f4552433732313a206d696e7420746f20746865207a65726f20616464726573736000830152602082019050919050565b6000612dfc6031836136e9565b91507f45524337323155524953746f726167653a2055524920717565727920666f722060008301527f6e6f6e6578697374656e7420746f6b656e0000000000000000000000000000006020830152604082019050919050565b6000612e62602c836136e9565b91507f4552433732313a20617070726f76656420717565727920666f72206e6f6e657860008301527f697374656e7420746f6b656e00000000000000000000000000000000000000006020830152604082019050919050565b6000612ec86029836136e9565b91507f4552433732313a207472616e73666572206f6620746f6b656e2074686174206960008301527f73206e6f74206f776e00000000000000000000000000000000000000000000006020830152604082019050919050565b6000612f2e602f836136e9565b91507f4552433732314d657461646174613a2055524920717565727920666f72206e6f60008301527f6e6578697374656e7420746f6b656e00000000000000000000000000000000006020830152604082019050919050565b6000612f94600a836136fa565b91507f7b226e616d65223a2022000000000000000000000000000000000000000000006000830152600a82019050919050565b6000612fd46021836136e9565b91507f4552433732313a20617070726f76616c20746f2063757272656e74206f776e6560008301527f72000000000000000000000000000000000000000000000000000000000000006020830152604082019050919050565b600061303a600a836136fa565b91507f46495253545f574f5244000000000000000000000000000000000000000000006000830152600a82019050919050565b600061307a601d836136fa565b91507f646174613a6170706c69636174696f6e2f6a736f6e3b6261736536342c0000006000830152601d82019050919050565b60006130ba6031836136e9565b91507f4552433732313a207472616e736665722063616c6c6572206973206e6f74206f60008301527f776e6572206e6f7220617070726f7665640000000000000000000000000000006020830152604082019050919050565b60006131206005836136fa565b91507f434f4c4f520000000000000000000000000000000000000000000000000000006000830152600582019050919050565b61315c81613884565b82525050565b600061316e82846127c3565b915081905092915050565b600061318582856127c3565b915061319182846127c3565b91508190509392505050565b60006131a982866127c3565b91506131b582856127c3565b91506131c182846127c3565b9150819050949350505050565b60006131da82876127f4565b91506131e682866127c3565b91506131f282856127f4565b91506131fe82846127c3565b915061320982612b57565b915081905095945050505050565b600061322282612919565b915061322e82846127c3565b915081905092915050565b600061324482612ab1565b915061325082846127c3565b915081905092915050565b600061326682612f87565b915061327282856127c3565b915061327d826129ff565b915061328982846127c3565b915061329482612d6f565b91508190509392505050565b60006132ab8261302d565b91506132b782846127c3565b915081905092915050565b60006132cd8261306d565b91506132d982846127c3565b915081905092915050565b60006132ef82613113565b91506132fb82846127c3565b915081905092915050565b600060208201905061331b6000830184612733565b92915050565b60006080820190506133366000830187612733565b6133436020830186612733565b6133506040830185613153565b81810360608301526133628184612751565b905095945050505050565b60006040820190506133826000830185612733565b61338f6020830184613153565b9392505050565b60006020820190506133ab6000830184612742565b92915050565b600060208201905081810360008301526133cb818461278a565b905092915050565b600060608201905081810360008301526133ed818661278a565b90506133fc6020830185613153565b6134096040830184612733565b949350505050565b6000602082019050818103600083015261342a81612873565b9050919050565b6000602082019050818103600083015261344a816128d9565b9050919050565b6000602082019050818103600083015261346a81612959565b9050919050565b6000602082019050818103600083015261348a816129bf565b9050919050565b600060208201905081810360008301526134aa81612af1565b9050919050565b600060208201905081810360008301526134ca81612b97565b9050919050565b600060208201905081810360008301526134ea81612bfd565b9050919050565b6000602082019050818103600083015261350a81612c63565b9050919050565b6000602082019050818103600083015261352a81612cc9565b9050919050565b6000602082019050818103600083015261354a81612d2f565b9050919050565b6000602082019050818103600083015261356a81612daf565b9050919050565b6000602082019050818103600083015261358a81612def565b9050919050565b600060208201905081810360008301526135aa81612e55565b9050919050565b600060208201905081810360008301526135ca81612ebb565b9050919050565b600060208201905081810360008301526135ea81612f21565b9050919050565b6000602082019050818103600083015261360a81612fc7565b9050919050565b6000602082019050818103600083015261362a816130ad565b9050919050565b60006020820190506136466000830184613153565b92915050565b6000604051905081810181811067ffffffffffffffff8211171561367357613672613a09565b5b8060405250919050565b600067ffffffffffffffff82111561369857613697613a09565b5b601f19601f8301169050602081019050919050565b60008190508160005260206000209050919050565b600081519050919050565b600081519050919050565b600082825260208201905092915050565b600082825260208201905092915050565b600081905092915050565b600061371082613884565b915061371b83613884565b9250827fffffffffffffffffffffffffffffffffffffffffffffffffffffffffffffffff038211156137505761374f61397c565b5b828201905092915050565b600061376682613884565b915061377183613884565b925082613781576137806139ab565b5b828204905092915050565b600061379782613884565b91506137a283613884565b9250817fffffffffffffffffffffffffffffffffffffffffffffffffffffffffffffffff04831182151516156137db576137da61397c565b5b828202905092915050565b60006137f182613884565b91506137fc83613884565b92508282101561380f5761380e61397c565b5b828203905092915050565b600061382582613864565b9050919050565b60008115159050919050565b60007fffffffff0000000000000000000000000000000000000000000000000000000082169050919050565b600073ffffffffffffffffffffffffffffffffffffffff82169050919050565b6000819050919050565b82818337600083830152505050565b60005b838110156138bb5780820151818401526020810190506138a0565b838111156138ca576000848401525b50505050565b600060028204905060018216806138e857607f821691505b602082108114156138fc576138fb6139da565b5b50919050565b600061390d82613884565b91507fffffffffffffffffffffffffffffffffffffffffffffffffffffffffffffffff8214156139405761393f61397c565b5b600182019050919050565b600061395682613884565b915061396183613884565b925082613971576139706139ab565b5b828206905092915050565b7f4e487b7100000000000000000000000000000000000000000000000000000000600052601160045260246000fd5b7f4e487b7100000000000000000000000000000000000000000000000000000000600052601260045260246000fd5b7f4e487b7100000000000000000000000000000000000000000000000000000000600052602260045260246000fd5b7f4e487b7100000000000000000000000000000000000000000000000000000000600052604160045260246000fd5b6000601f19601f8301169050919050565b613a528161381a565b8114613a5d57600080fd5b50565b613a698161382c565b8114613a7457600080fd5b50565b613a8081613838565b8114613a8b57600080fd5b50565b613a9781613884565b8114613aa257600080fd5b5056fe616e204e465420772f20494420257320686173206265656e206d696e74656420746f2025734142434445464748494a4b4c4d4e4f505152535455565758595a6162636465666768696a6b6c6d6e6f707172737475767778797a303132333435363738392b2fa2646970667358221220537ea6dbd5db37de79629f0447f7ac1e38689943e8e814073696c86ed2fec74764736f6c634300080000333c73766720786d6c6e733d27687474703a2f2f7777772e77332e6f72672f323030302f73766727207072657365727665417370656374526174696f3d27784d696e594d696e206d656574272076696577426f783d273020302033353020333530273e3c7374796c653e2e62617365207b2066696c6c3a2077686974653b20666f6e742d66616d696c793a2073657269663b20666f6e742d73697a653a20323470783b207d3c2f7374796c653e3c726563742077696474683d273130302527206865696768743d2731303025272066696c6c3d27272f3e3c7465787420783d273530252720793d273530252720636c6173733d27626173652720646f6d696e616e742d626173656c696e653d276d6964646c652720746578742d616e63686f723d276d6964646c65273e",
  "linkReferences": {},
  "deployedLinkReferences": {}
}