{
  "_format": "hh-sol-artifact-1",
  "contractName": "MyEpicNFT",
  "sourceName": "contracts/MyEpicNFT.sol",
  "abi": [
    {
      "inputs": [],
      "stateMutability": "nonpayable",
      "type": "constructor"
    },
    {
      "anonymous": false,
      "inputs": [
        {
          "indexed": true,
          "internalType": "address",
          "name": "owner",
          "type": "address"
        },
        {
          "indexed": true,
          "internalType": "address",
          "name": "approved",
          "type": "address"
        },
        {
          "indexed": true,
          "internalType": "uint256",
          "name": "tokenId",
          "type": "uint256"
        }
      ],
      "name": "Approval",
      "type": "event"
    },
    {
      "anonymous": false,
      "inputs": [
        {
          "indexed": true,
          "internalType": "address",
          "name": "owner",
          "type": "address"
        },
        {
          "indexed": true,
          "internalType": "address",
          "name": "operator",
          "type": "address"
        },
        {
          "indexed": false,
          "internalType": "bool",
          "name": "approved",
          "type": "bool"
        }
      ],
      "name": "ApprovalForAll",
      "type": "event"
    },
    {
      "anonymous": false,
      "inputs": [
        {
          "indexed": false,
          "internalType": "address",
          "name": "sender",
          "type": "address"
        },
        {
          "indexed": false,
          "internalType": "uint256",
          "name": "tokenId",
          "type": "uint256"
        },
        {
          "indexed": false,
          "internalType": "string[]",
          "name": "collections",
          "type": "string[]"
        }
      ],
      "name": "NewEpicNFTMinted",
      "type": "event"
    },
    {
      "anonymous": false,
      "inputs": [
        {
          "indexed": true,
          "internalType": "address",
          "name": "from",
          "type": "address"
        },
        {
          "indexed": true,
          "internalType": "address",
          "name": "to",
          "type": "address"
        },
        {
          "indexed": true,
          "internalType": "uint256",
          "name": "tokenId",
          "type": "uint256"
        }
      ],
      "name": "Transfer",
      "type": "event"
    },
    {
      "inputs": [
        {
          "internalType": "address",
          "name": "to",
          "type": "address"
        },
        {
          "internalType": "uint256",
          "name": "tokenId",
          "type": "uint256"
        }
      ],
      "name": "approve",
      "outputs": [],
      "stateMutability": "nonpayable",
      "type": "function"
    },
    {
      "inputs": [
        {
          "internalType": "address",
          "name": "owner",
          "type": "address"
        }
      ],
      "name": "balanceOf",
      "outputs": [
        {
          "internalType": "uint256",
          "name": "",
          "type": "uint256"
        }
      ],
      "stateMutability": "view",
      "type": "function"
    },
    {
      "inputs": [
        {
          "internalType": "uint256",
          "name": "tokenId",
          "type": "uint256"
        }
      ],
      "name": "getApproved",
      "outputs": [
        {
          "internalType": "address",
          "name": "",
          "type": "address"
        }
      ],
      "stateMutability": "view",
      "type": "function"
    },
    {
      "inputs": [],
      "name": "getMyCollections",
      "outputs": [
        {
          "internalType": "string[]",
          "name": "",
          "type": "string[]"
        }
      ],
      "stateMutability": "view",
      "type": "function"
    },
    {
      "inputs": [],
      "name": "getNumberOfNFTMinted",
      "outputs": [
        {
          "internalType": "uint256",
          "name": "",
          "type": "uint256"
        }
      ],
      "stateMutability": "view",
      "type": "function"
    },
    {
      "inputs": [
        {
          "internalType": "address",
          "name": "owner",
          "type": "address"
        },
        {
          "internalType": "address",
          "name": "operator",
          "type": "address"
        }
      ],
      "name": "isApprovedForAll",
      "outputs": [
        {
          "internalType": "bool",
          "name": "",
          "type": "bool"
        }
      ],
      "stateMutability": "view",
      "type": "function"
    },
    {
      "inputs": [],
      "name": "makeAnEpicNFT",
      "outputs": [],
      "stateMutability": "nonpayable",
      "type": "function"
    },
    {
      "inputs": [],
      "name": "name",
      "outputs": [
        {
          "internalType": "string",
          "name": "",
          "type": "string"
        }
      ],
      "stateMutability": "view",
      "type": "function"
    },
    {
      "inputs": [
        {
          "internalType": "uint256",
          "name": "tokenId",
          "type": "uint256"
        }
      ],
      "name": "ownerOf",
      "outputs": [
        {
          "internalType": "address",
          "name": "",
          "type": "address"
        }
      ],
      "stateMutability": "view",
      "type": "function"
    },
    {
      "inputs": [
        {
          "internalType": "uint256",
          "name": "tokenId",
          "type": "uint256"
        }
      ],
      "name": "pickRandomColor",
      "outputs": [
        {
          "internalType": "string",
          "name": "",
          "type": "string"
        }
      ],
      "stateMutability": "view",
      "type": "function"
    },
    {
      "inputs": [
        {
          "internalType": "uint256",
          "name": "tokenId",
          "type": "uint256"
        }
      ],
      "name": "pickRandomFirstWord",
      "outputs": [
        {
          "internalType": "string",
          "name": "",
          "type": "string"
        }
      ],
      "stateMutability": "view",
      "type": "function"
    },
    {
      "inputs": [
        {
          "internalType": "uint256",
          "name": "tokenId",
          "type": "uint256"
        }
      ],
      "name": "pickRandomSecondWord",
      "outputs": [
        {
          "internalType": "string",
          "name": "",
          "type": "string"
        }
      ],
      "stateMutability": "view",
      "type": "function"
    },
    {
      "inputs": [
        {
          "internalType": "uint256",
          "name": "tokenId",
          "type": "uint256"
        }
      ],
      "name": "pickRandomThirdWord",
      "outputs": [
        {
          "internalType": "string",
          "name": "",
          "type": "string"
        }
      ],
      "stateMutability": "view",
      "type": "function"
    },
    {
      "inputs": [
        {
          "internalType": "address",
          "name": "from",
          "type": "address"
        },
        {
          "internalType": "address",
          "name": "to",
          "type": "address"
        },
        {
          "internalType": "uint256",
          "name": "tokenId",
          "type": "uint256"
        }
      ],
      "name": "safeTransferFrom",
      "outputs": [],
      "stateMutability": "nonpayable",
      "type": "function"
    },
    {
      "inputs": [
        {
          "internalType": "address",
          "name": "from",
          "type": "address"
        },
        {
          "internalType": "address",
          "name": "to",
          "type": "address"
        },
        {
          "internalType": "uint256",
          "name": "tokenId",
          "type": "uint256"
        },
        {
          "internalType": "bytes",
          "name": "_data",
          "type": "bytes"
        }
      ],
      "name": "safeTransferFrom",
      "outputs": [],
      "stateMutability": "nonpayable",
      "type": "function"
    },
    {
      "inputs": [
        {
          "internalType": "address",
          "name": "operator",
          "type": "address"
        },
        {
          "internalType": "bool",
          "name": "approved",
          "type": "bool"
        }
      ],
      "name": "setApprovalForAll",
      "outputs": [],
      "stateMutability": "nonpayable",
      "type": "function"
    },
    {
      "inputs": [
        {
          "internalType": "bytes4",
          "name": "interfaceId",
          "type": "bytes4"
        }
      ],
      "name": "supportsInterface",
      "outputs": [
        {
          "internalType": "bool",
          "name": "",
          "type": "bool"
        }
      ],
      "stateMutability": "view",
      "type": "function"
    },
    {
      "inputs": [],
      "name": "symbol",
      "outputs": [
        {
          "internalType": "string",
          "name": "",
          "type": "string"
        }
      ],
      "stateMutability": "view",
      "type": "function"
    },
    {
      "inputs": [
        {
          "internalType": "uint256",
          "name": "tokenId",
          "type": "uint256"
        }
      ],
      "name": "tokenURI",
      "outputs": [
        {
          "internalType": "string",
          "name": "",
          "type": "string"
        }
      ],
      "stateMutability": "view",
      "type": "function"
    },
    {
      "inputs": [
        {
          "internalType": "address",
          "name": "from",
          "type": "address"
        },
        {
          "internalType": "address",
          "name": "to",
          "type": "address"
        },
        {
          "internalType": "uint256",
          "name": "tokenId",
          "type": "uint256"
        }
      ],
      "name": "transferFrom",
      "outputs": [],
      "stateMutability": "nonpayable",
      "type": "function"
    }
  ],
  "bytecode": "0x608060405260405180610100016040528060d3815260200162004aab60d39139600a9080519060200190620000369291906200082c565b5060405180608001604052806056815260200162004b7e60569139600b9080519060200190620000689291906200082c565b506040518060c001604052806040518060400160405280600481526020017f444f47450000000000000000000000000000000000000000000000000000000081525081526020016040518060400160405280600381526020017f425443000000000000000000000000000000000000000000000000000000000081525081526020016040518060400160405280600481526020017f4c554e410000000000000000000000000000000000000000000000000000000081525081526020016040518060400160405280600381526020017f444f54000000000000000000000000000000000000000000000000000000000081525081526020016040518060400160405280600381526020017f455448000000000000000000000000000000000000000000000000000000000081525081526020016040518060400160405280600381526020017f534f4c0000000000000000000000000000000000000000000000000000000000815250815250600c906006620001e6929190620008bd565b506040518060c001604052806040518060400160405280600481526020017f4d6172730000000000000000000000000000000000000000000000000000000081525081526020016040518060400160405280600481526020017f4d6f6f6e0000000000000000000000000000000000000000000000000000000081525081526020016040518060400160405280600781526020017f4d6572637572790000000000000000000000000000000000000000000000000081525081526020016040518060400160405280600781526020017f4a7570697465720000000000000000000000000000000000000000000000000081525081526020016040518060400160405280600681526020017f53617475726e000000000000000000000000000000000000000000000000000081525081526020016040518060400160405280600781526020017f4e657074756e6500000000000000000000000000000000000000000000000000815250815250600d90600662000364929190620008bd565b506040518060c001604052806040518060400160405280600481526020017f436f6b650000000000000000000000000000000000000000000000000000000081525081526020016040518060400160405280600481526020017f426565720000000000000000000000000000000000000000000000000000000081525081526020016040518060400160405280600881526020017f4b6f6d627563686100000000000000000000000000000000000000000000000081525081526020016040518060400160405280600481526020017f57696e650000000000000000000000000000000000000000000000000000000081525081526020016040518060400160405280600581526020017f576174657200000000000000000000000000000000000000000000000000000081525081526020016040518060400160405280600581526020017f4a75696365000000000000000000000000000000000000000000000000000000815250815250600e906006620004e2929190620008bd565b506040518060c001604052806040518060400160405280600381526020017f726564000000000000000000000000000000000000000000000000000000000081525081526020016040518060400160405280600781526020017f233038433241380000000000000000000000000000000000000000000000000081525081526020016040518060400160405280600581526020017f626c61636b00000000000000000000000000000000000000000000000000000081525081526020016040518060400160405280600681526020017f79656c6c6f77000000000000000000000000000000000000000000000000000081525081526020016040518060400160405280600481526020017f626c75650000000000000000000000000000000000000000000000000000000081525081526020016040518060400160405280600581526020017f677265656e000000000000000000000000000000000000000000000000000000815250815250600f90600662000660929190620008bd565b503480156200066e57600080fd5b506040518060400160405280600981526020017f5371756172654e465400000000000000000000000000000000000000000000008152506040518060400160405280600681526020017f53515541524500000000000000000000000000000000000000000000000000008152508160009080519060200190620006f39291906200082c565b5080600190805190602001906200070c9291906200082c565b5050506200075a6040518060400160405280601e81526020017f54686973206973206d79204e465420636f6e74726163742e20576f61682100008152506200076060201b6200162a1760201c565b62000ade565b6200080081604051602401620007779190620009f2565b6040516020818303038152906040527f41304fac000000000000000000000000000000000000000000000000000000007bffffffffffffffffffffffffffffffffffffffffffffffffffffffff19166020820180517bffffffffffffffffffffffffffffffffffffffffffffffffffffffff83818316178352505050506200080360201b60201c565b50565b60008151905060006a636f6e736f6c652e6c6f679050602083016000808483855afa5050505050565b8280546200083a9062000a68565b90600052602060002090601f0160209004810192826200085e5760008555620008aa565b82601f106200087957805160ff1916838001178555620008aa565b82800160010185558215620008aa579182015b82811115620008a95782518255916020019190600101906200088c565b5b509050620008b9919062000924565b5090565b82805482825590600052602060002090810192821562000911579160200282015b8281111562000910578251829080519060200190620008ff9291906200082c565b5091602001919060010190620008de565b5b50905062000920919062000943565b5090565b5b808211156200093f57600081600090555060010162000925565b5090565b5b808211156200096757600081816200095d91906200096b565b5060010162000944565b5090565b508054620009799062000a68565b6000825580601f106200098d5750620009ae565b601f016020900490600052602060002090810190620009ad919062000924565b5b50565b6000620009be8262000a16565b620009ca818562000a21565b9350620009dc81856020860162000a32565b620009e78162000acd565b840191505092915050565b6000602082019050818103600083015262000a0e8184620009b1565b905092915050565b600081519050919050565b600082825260208201905092915050565b60005b8381101562000a5257808201518184015260208101905062000a35565b8381111562000a62576000848401525b50505050565b6000600282049050600182168062000a8157607f821691505b6020821081141562000a985762000a9762000a9e565b5b50919050565b7f4e487b7100000000000000000000000000000000000000000000000000000000600052602260045260246000fd5b6000601f19601f8301169050919050565b613fbd8062000aee6000396000f3fe608060405234801561001057600080fd5b506004361061012c5760003560e01c806395d89b41116100ad578063c87b56dd11610071578063c87b56dd14610379578063d6101980146103a9578063de9d132f146103c7578063e985e9c5146103d1578063eb1c4273146104015761012c565b806395d89b41146102c3578063a22cb465146102e1578063b187301f146102fd578063b88d4fde1461032d578063c575757a146103495761012c565b80632de38d68116100f45780632de38d68146101e757806342842e0e14610217578063514dc8c6146102335780636352211e1461026357806370a08231146102935761012c565b806301ffc9a71461013157806306fdde0314610161578063081812fc1461017f578063095ea7b3146101af57806323b872dd146101cb575b600080fd5b61014b600480360381019061014691906128bd565b61041f565b604051610158919061379c565b60405180910390f35b610169610501565b60405161017691906137b7565b60405180910390f35b6101996004803603810190610194919061290f565b610593565b6040516101a691906136d5565b60405180910390f35b6101c960048036038101906101c49190612881565b610618565b005b6101e560048036038101906101e0919061277b565b610730565b005b61020160048036038101906101fc919061290f565b610790565b60405161020e91906137b7565b60405180910390f35b610231600480360381019061022c919061277b565b6108ae565b005b61024d6004803603810190610248919061290f565b6108ce565b60405161025a91906137b7565b60405180910390f35b61027d6004803603810190610278919061290f565b6109ec565b60405161028a91906136d5565b60405180910390f35b6102ad60048036038101906102a89190612716565b610a9e565b6040516102ba9190613a37565b60405180910390f35b6102cb610b56565b6040516102d891906137b7565b60405180910390f35b6102fb60048036038101906102f69190612845565b610be8565b005b6103176004803603810190610312919061290f565b610d69565b60405161032491906137b7565b60405180910390f35b610347600480360381019061034291906127ca565b610e87565b005b610363600480360381019061035e919061290f565b610ee9565b60405161037091906137b7565b60405180910390f35b610393600480360381019061038e919061290f565b611007565b6040516103a091906137b7565b60405180910390f35b6103b1611159565b6040516103be919061377a565b60405180910390f35b6103cf61126f565b005b6103eb60048036038101906103e6919061273f565b61158c565b6040516103f8919061379c565b60405180910390f35b610409611620565b6040516104169190613a37565b60405180910390f35b60007f80ac58cd000000000000000000000000000000000000000000000000000000007bffffffffffffffffffffffffffffffffffffffffffffffffffffffff1916827bffffffffffffffffffffffffffffffffffffffffffffffffffffffff191614806104ea57507f5b5e139f000000000000000000000000000000000000000000000000000000007bffffffffffffffffffffffffffffffffffffffffffffffffffffffff1916827bffffffffffffffffffffffffffffffffffffffffffffffffffffffff1916145b806104fa57506104f9826116c3565b5b9050919050565b60606000805461051090613d4d565b80601f016020809104026020016040519081016040528092919081815260200182805461053c90613d4d565b80156105895780601f1061055e57610100808354040283529160200191610589565b820191906000526020600020905b81548152906001019060200180831161056c57829003601f168201915b5050505050905090565b600061059e8261172d565b6105dd576040517f08c379a00000000000000000000000000000000000000000000000000000000081526004016105d490613997565b60405180910390fd5b6004600083815260200190815260200160002060009054906101000a900473ffffffffffffffffffffffffffffffffffffffff169050919050565b6000610623826109ec565b90508073ffffffffffffffffffffffffffffffffffffffff168373ffffffffffffffffffffffffffffffffffffffff161415610694576040517f08c379a000000000000000000000000000000000000000000000000000000000815260040161068b906139f7565b60405180910390fd5b8073ffffffffffffffffffffffffffffffffffffffff166106b3611799565b73ffffffffffffffffffffffffffffffffffffffff1614806106e257506106e1816106dc611799565b61158c565b5b610721576040517f08c379a0000000000000000000000000000000000000000000000000000000008152600401610718906138b7565b60405180910390fd5b61072b83836117a1565b505050565b61074161073b611799565b8261185a565b610780576040517f08c379a000000000000000000000000000000000000000000000000000000000815260040161077790613a17565b60405180910390fd5b61078b838383611938565b505050565b606060006107c46107a084611b94565b6040516020016107b0919061366f565b604051602081830303815290604052611d41565b9050600c80549050816107d79190613dc8565b9050600c8181548110610813577f4e487b7100000000000000000000000000000000000000000000000000000000600052603260045260246000fd5b90600052602060002001805461082890613d4d565b80601f016020809104026020016040519081016040528092919081815260200182805461085490613d4d565b80156108a15780601f10610876576101008083540402835291602001916108a1565b820191906000526020600020905b81548152906001019060200180831161088457829003601f168201915b5050505050915050919050565b6108c983838360405180602001604052806000815250610e87565b505050565b606060006109026108de84611b94565b6040516020016108ee91906136b3565b604051602081830303815290604052611d41565b9050600f80549050816109159190613dc8565b9050600f8181548110610951577f4e487b7100000000000000000000000000000000000000000000000000000000600052603260045260246000fd5b90600052602060002001805461096690613d4d565b80601f016020809104026020016040519081016040528092919081815260200182805461099290613d4d565b80156109df5780601f106109b4576101008083540402835291602001916109df565b820191906000526020600020905b8154815290600101906020018083116109c257829003601f168201915b5050505050915050919050565b6000806002600084815260200190815260200160002060009054906101000a900473ffffffffffffffffffffffffffffffffffffffff169050600073ffffffffffffffffffffffffffffffffffffffff168173ffffffffffffffffffffffffffffffffffffffff161415610a95576040517f08c379a0000000000000000000000000000000000000000000000000000000008152600401610a8c906138f7565b60405180910390fd5b80915050919050565b60008073ffffffffffffffffffffffffffffffffffffffff168273ffffffffffffffffffffffffffffffffffffffff161415610b0f576040517f08c379a0000000000000000000000000000000000000000000000000000000008152600401610b06906138d7565b60405180910390fd5b600360008373ffffffffffffffffffffffffffffffffffffffff1673ffffffffffffffffffffffffffffffffffffffff168152602001908152602001600020549050919050565b606060018054610b6590613d4d565b80601f0160208091040260200160405190810160405280929190818152602001828054610b9190613d4d565b8015610bde5780601f10610bb357610100808354040283529160200191610bde565b820191906000526020600020905b815481529060010190602001808311610bc157829003601f168201915b5050505050905090565b610bf0611799565b73ffffffffffffffffffffffffffffffffffffffff168273ffffffffffffffffffffffffffffffffffffffff161415610c5e576040517f08c379a0000000000000000000000000000000000000000000000000000000008152600401610c5590613877565b60405180910390fd5b8060056000610c6b611799565b73ffffffffffffffffffffffffffffffffffffffff1673ffffffffffffffffffffffffffffffffffffffff16815260200190815260200160002060008473ffffffffffffffffffffffffffffffffffffffff1673ffffffffffffffffffffffffffffffffffffffff16815260200190815260200160002060006101000a81548160ff0219169083151502179055508173ffffffffffffffffffffffffffffffffffffffff16610d18611799565b73ffffffffffffffffffffffffffffffffffffffff167f17307eab39ab6107e8899845ad3d59bd9653f200f220920489ca2b5937696c3183604051610d5d919061379c565b60405180910390a35050565b60606000610d9d610d7984611b94565b604051602001610d899190613608565b604051602081830303815290604052611d41565b9050600d8054905081610db09190613dc8565b9050600d8181548110610dec577f4e487b7100000000000000000000000000000000000000000000000000000000600052603260045260246000fd5b906000526020600020018054610e0190613d4d565b80601f0160208091040260200160405190810160405280929190818152602001828054610e2d90613d4d565b8015610e7a5780601f10610e4f57610100808354040283529160200191610e7a565b820191906000526020600020905b815481529060010190602001808311610e5d57829003601f168201915b5050505050915050919050565b610e98610e92611799565b8361185a565b610ed7576040517f08c379a0000000000000000000000000000000000000000000000000000000008152600401610ece90613a17565b60405180910390fd5b610ee384848484611d74565b50505050565b60606000610f1d610ef984611b94565b604051602001610f0991906135e6565b604051602081830303815290604052611d41565b9050600e8054905081610f309190613dc8565b9050600e8181548110610f6c577f4e487b7100000000000000000000000000000000000000000000000000000000600052603260045260246000fd5b906000526020600020018054610f8190613d4d565b80601f0160208091040260200160405190810160405280929190818152602001828054610fad90613d4d565b8015610ffa5780601f10610fcf57610100808354040283529160200191610ffa565b820191906000526020600020905b815481529060010190602001808311610fdd57829003601f168201915b5050505050915050919050565b60606110128261172d565b611051576040517f08c379a000000000000000000000000000000000000000000000000000000000815260040161104890613977565b60405180910390fd5b600060066000848152602001908152602001600020805461107190613d4d565b80601f016020809104026020016040519081016040528092919081815260200182805461109d90613d4d565b80156110ea5780601f106110bf576101008083540402835291602001916110ea565b820191906000526020600020905b8154815290600101906020018083116110cd57829003601f168201915b5050505050905060006110fb611dd0565b9050600081511415611111578192505050611154565b60008251111561114657808260405160200161112e929190613548565b60405160208183030381529060405292505050611154565b61114f84611de7565b925050505b919050565b6060600960003373ffffffffffffffffffffffffffffffffffffffff1673ffffffffffffffffffffffffffffffffffffffff168152602001908152602001600020805480602002602001604051908101604052809291908181526020016000905b828210156112665783829060005260206000200180546111d990613d4d565b80601f016020809104026020016040519081016040528092919081815260200182805461120590613d4d565b80156112525780601f1061122757610100808354040283529160200191611252565b820191906000526020600020905b81548152906001019060200180831161123557829003601f168201915b5050505050815260200190600101906111ba565b50505050905090565b6032600854106112b4576040517f08c379a00000000000000000000000000000000000000000000000000000000081526004016112ab90613937565b60405180910390fd5b60006112c06007611e8e565b905060006112cd82610790565b905060006112da83610d69565b905060006112e784610ee9565b905060008383836040516020016113009392919061356c565b6040516020818303038152906040529050600061131c866108ce565b90506000600a82600b85604051602001611339949392919061359d565b6040516020818303038152906040529050600061137e8461135984611e9c565b60405160200161136a92919061362a565b604051602081830303815290604052611e9c565b90506000816040516020016113939190613691565b60405160208183030381529060405290506113e26040518060400160405280601581526020017f0a2d2d2d2d2d2d2d2d2d2d2d2d2d2d2d2d2d2d2d2d000000000000000000000081525061162a565b6113eb8361162a565b6114296040518060400160405280601581526020017f2d2d2d2d2d2d2d2d2d2d2d2d2d2d2d2d2d2d2d2d0a000000000000000000000081525061162a565b611433338a61205a565b61143d8982612078565b611460604051806060016040528060258152602001613f23602591398a336120ec565b61146a600761218b565b6008600081548092919061147d90613d7f565b91905055506000600990508060003373ffffffffffffffffffffffffffffffffffffffff1673ffffffffffffffffffffffffffffffffffffffff1681526020019081526020016000206114cf85611e9c565b9080600181540180825580915050600190039060005260206000200160009091909190915090805190602001906115079291906125a2565b507f95bf6be4fe70e664679f311387ee5316f47007c23b16fdff7b2880a335e9353e338b8360003373ffffffffffffffffffffffffffffffffffffffff1673ffffffffffffffffffffffffffffffffffffffff1681526020019081526020016000206040516115789392919061373c565b60405180910390a150505050505050505050565b6000600560008473ffffffffffffffffffffffffffffffffffffffff1673ffffffffffffffffffffffffffffffffffffffff16815260200190815260200160002060008373ffffffffffffffffffffffffffffffffffffffff1673ffffffffffffffffffffffffffffffffffffffff16815260200190815260200160002060009054906101000a900460ff16905092915050565b6000600854905090565b6116c08160405160240161163e91906137b7565b6040516020818303038152906040527f41304fac000000000000000000000000000000000000000000000000000000007bffffffffffffffffffffffffffffffffffffffffffffffffffffffff19166020820180517bffffffffffffffffffffffffffffffffffffffffffffffffffffffff83818316178352505050506121a1565b50565b60007f01ffc9a7000000000000000000000000000000000000000000000000000000007bffffffffffffffffffffffffffffffffffffffffffffffffffffffff1916827bffffffffffffffffffffffffffffffffffffffffffffffffffffffff1916149050919050565b60008073ffffffffffffffffffffffffffffffffffffffff166002600084815260200190815260200160002060009054906101000a900473ffffffffffffffffffffffffffffffffffffffff1673ffffffffffffffffffffffffffffffffffffffff1614159050919050565b600033905090565b816004600083815260200190815260200160002060006101000a81548173ffffffffffffffffffffffffffffffffffffffff021916908373ffffffffffffffffffffffffffffffffffffffff160217905550808273ffffffffffffffffffffffffffffffffffffffff16611814836109ec565b73ffffffffffffffffffffffffffffffffffffffff167f8c5be1e5ebec7d5bd14f71427d1e84f3dd0314c0f7b2291e5b200ac8c7c3b92560405160405180910390a45050565b60006118658261172d565b6118a4576040517f08c379a000000000000000000000000000000000000000000000000000000000815260040161189b90613897565b60405180910390fd5b60006118af836109ec565b90508073ffffffffffffffffffffffffffffffffffffffff168473ffffffffffffffffffffffffffffffffffffffff16148061191e57508373ffffffffffffffffffffffffffffffffffffffff1661190684610593565b73ffffffffffffffffffffffffffffffffffffffff16145b8061192f575061192e818561158c565b5b91505092915050565b8273ffffffffffffffffffffffffffffffffffffffff16611958826109ec565b73ffffffffffffffffffffffffffffffffffffffff16146119ae576040517f08c379a00000000000000000000000000000000000000000000000000000000081526004016119a5906139b7565b60405180910390fd5b600073ffffffffffffffffffffffffffffffffffffffff168273ffffffffffffffffffffffffffffffffffffffff161415611a1e576040517f08c379a0000000000000000000000000000000000000000000000000000000008152600401611a1590613857565b60405180910390fd5b611a298383836121ca565b611a346000826117a1565b6001600360008573ffffffffffffffffffffffffffffffffffffffff1673ffffffffffffffffffffffffffffffffffffffff1681526020019081526020016000206000828254611a849190613c63565b925050819055506001600360008473ffffffffffffffffffffffffffffffffffffffff1673ffffffffffffffffffffffffffffffffffffffff1681526020019081526020016000206000828254611adb9190613b82565b92505081905550816002600083815260200190815260200160002060006101000a81548173ffffffffffffffffffffffffffffffffffffffff021916908373ffffffffffffffffffffffffffffffffffffffff160217905550808273ffffffffffffffffffffffffffffffffffffffff168473ffffffffffffffffffffffffffffffffffffffff167fddf252ad1be2c89b69c2b068fc378daa952ba7f163c4a11628f55a4df523b3ef60405160405180910390a4505050565b60606000821415611bdc576040518060400160405280600181526020017f30000000000000000000000000000000000000000000000000000000000000008152509050611d3c565b600082905060005b60008214611c0e578080611bf790613d7f565b915050600a82611c079190613bd8565b9150611be4565b60008167ffffffffffffffff811115611c50577f4e487b7100000000000000000000000000000000000000000000000000000000600052604160045260246000fd5b6040519080825280601f01601f191660200182016040528015611c825781602001600182028036833780820191505090505b5090505b60008514611d3557600182611c9b9190613c63565b9150600a85611caa9190613dc8565b6030611cb69190613b82565b60f81b818381518110611cf2577f4e487b7100000000000000000000000000000000000000000000000000000000600052603260045260246000fd5b60200101907effffffffffffffffffffffffffffffffffffffffffffffffffffffffffffff1916908160001a905350600a85611d2e9190613bd8565b9450611c86565b8093505050505b919050565b600081604051602001611d549190613531565b6040516020818303038152906040528051906020012060001c9050919050565b611d7f848484611938565b611d8b848484846121cf565b611dca576040517f08c379a0000000000000000000000000000000000000000000000000000000008152600401611dc190613817565b60405180910390fd5b50505050565b606060405180602001604052806000815250905090565b6060611df28261172d565b611e31576040517f08c379a0000000000000000000000000000000000000000000000000000000008152600401611e28906139d7565b60405180910390fd5b6000611e3b611dd0565b90506000815111611e5b5760405180602001604052806000815250611e86565b80611e6584611b94565b604051602001611e76929190613548565b6040516020818303038152906040525b915050919050565b600081600001549050919050565b60606000825190506000811415611ec55760405180602001604052806000815250915050612055565b60006003600283611ed69190613b82565b611ee09190613bd8565b6004611eec9190613c09565b90506000602082611efd9190613b82565b67ffffffffffffffff811115611f3c577f4e487b7100000000000000000000000000000000000000000000000000000000600052604160045260246000fd5b6040519080825280601f01601f191660200182016040528015611f6e5781602001600182028036833780820191505090505b5090506000604051806060016040528060408152602001613f48604091399050600181016020830160005b868110156120125760038101905062ffffff818a015116603f8160121c168401518060081b905060ff603f83600c1c1686015116810190508060081b905060ff603f8360061c1686015116810190508060081b905060ff603f831686015116810190508060e01b90508084526004840193505050611f99565b50600386066001811461202c576002811461203c57612047565b613d3d60f01b6002830352612047565b603d60f81b60018303525b508484525050819450505050505b919050565b612074828260405180602001604052806000815250612366565b5050565b6120818261172d565b6120c0576040517f08c379a00000000000000000000000000000000000000000000000000000000081526004016120b790613917565b60405180910390fd5b806006600084815260200190815260200160002090805190602001906120e79291906125a2565b505050565b612186838383604051602401612104939291906137d9565b6040516020818303038152906040527fe3849f79000000000000000000000000000000000000000000000000000000007bffffffffffffffffffffffffffffffffffffffffffffffffffffffff19166020820180517bffffffffffffffffffffffffffffffffffffffffffffffffffffffff83818316178352505050506121a1565b505050565b6001816000016000828254019250508190555050565b60008151905060006a636f6e736f6c652e6c6f679050602083016000808483855afa5050505050565b505050565b60006121f08473ffffffffffffffffffffffffffffffffffffffff166123c1565b15612359578373ffffffffffffffffffffffffffffffffffffffff1663150b7a02612219611799565b8786866040518563ffffffff1660e01b815260040161223b94939291906136f0565b602060405180830381600087803b15801561225557600080fd5b505af192505050801561228657506040513d601f19601f8201168201806040525081019061228391906128e6565b60015b612309573d80600081146122b6576040519150601f19603f3d011682016040523d82523d6000602084013e6122bb565b606091505b50600081511415612301576040517f08c379a00000000000000000000000000000000000000000000000000000000081526004016122f890613817565b60405180910390fd5b805181602001fd5b63150b7a0260e01b7bffffffffffffffffffffffffffffffffffffffffffffffffffffffff1916817bffffffffffffffffffffffffffffffffffffffffffffffffffffffff19161491505061235e565b600190505b949350505050565b61237083836123d4565b61237d60008484846121cf565b6123bc576040517f08c379a00000000000000000000000000000000000000000000000000000000081526004016123b390613817565b60405180910390fd5b505050565b600080823b905060008111915050919050565b600073ffffffffffffffffffffffffffffffffffffffff168273ffffffffffffffffffffffffffffffffffffffff161415612444576040517f08c379a000000000000000000000000000000000000000000000000000000000815260040161243b90613957565b60405180910390fd5b61244d8161172d565b1561248d576040517f08c379a000000000000000000000000000000000000000000000000000000000815260040161248490613837565b60405180910390fd5b612499600083836121ca565b6001600360008473ffffffffffffffffffffffffffffffffffffffff1673ffffffffffffffffffffffffffffffffffffffff16815260200190815260200160002060008282546124e99190613b82565b92505081905550816002600083815260200190815260200160002060006101000a81548173ffffffffffffffffffffffffffffffffffffffff021916908373ffffffffffffffffffffffffffffffffffffffff160217905550808273ffffffffffffffffffffffffffffffffffffffff16600073ffffffffffffffffffffffffffffffffffffffff167fddf252ad1be2c89b69c2b068fc378daa952ba7f163c4a11628f55a4df523b3ef60405160405180910390a45050565b8280546125ae90613d4d565b90600052602060002090601f0160209004810192826125d05760008555612617565b82601f106125e957805160ff1916838001178555612617565b82800160010185558215612617579182015b828111156126165782518255916020019190600101906125fb565b5b5090506126249190612628565b5090565b5b80821115612641576000816000905550600101612629565b5090565b600061265861265384613a83565b613a52565b90508281526020810184848401111561267057600080fd5b61267b848285613d0b565b509392505050565b60008135905061269281613ec6565b92915050565b6000813590506126a781613edd565b92915050565b6000813590506126bc81613ef4565b92915050565b6000815190506126d181613ef4565b92915050565b600082601f8301126126e857600080fd5b81356126f8848260208601612645565b91505092915050565b60008135905061271081613f0b565b92915050565b60006020828403121561272857600080fd5b600061273684828501612683565b91505092915050565b6000806040838503121561275257600080fd5b600061276085828601612683565b925050602061277185828601612683565b9150509250929050565b60008060006060848603121561279057600080fd5b600061279e86828701612683565b93505060206127af86828701612683565b92505060406127c086828701612701565b9150509250925092565b600080600080608085870312156127e057600080fd5b60006127ee87828801612683565b94505060206127ff87828801612683565b935050604061281087828801612701565b925050606085013567ffffffffffffffff81111561282d57600080fd5b612839878288016126d7565b91505092959194509250565b6000806040838503121561285857600080fd5b600061286685828601612683565b925050602061287785828601612698565b9150509250929050565b6000806040838503121561289457600080fd5b60006128a285828601612683565b92505060206128b385828601612701565b9150509250929050565b6000602082840312156128cf57600080fd5b60006128dd848285016126ad565b91505092915050565b6000602082840312156128f857600080fd5b6000612906848285016126c2565b91505092915050565b60006020828403121561292157600080fd5b600061292f84828501612701565b91505092915050565b60006129448383612aa0565b905092915050565b60006129588383612b43565b905092915050565b61296981613c97565b82525050565b600061297a82613aed565b6129848185613b33565b93508360208202850161299685613ab3565b8060005b858110156129d257848403895281516129b38582612938565b94506129be83613b19565b925060208a0199505060018101905061299a565b50829750879550505050505092915050565b60006129ef82613af8565b6129f98185613b33565b935083602082028501612a0b85613ac3565b8060005b85811015612a4657848403895281612a27858261294c565b9450612a3283613b26565b925060208a01995050600181019050612a0f565b50829750879550505050505092915050565b612a6181613ca9565b82525050565b6000612a7282613b03565b612a7c8185613b44565b9350612a8c818560208601613d1a565b612a9581613eb5565b840191505092915050565b6000612aab82613b0e565b612ab58185613b55565b9350612ac5818560208601613d1a565b612ace81613eb5565b840191505092915050565b6000612ae482613b0e565b612aee8185613b66565b9350612afe818560208601613d1a565b612b0781613eb5565b840191505092915050565b6000612b1d82613b0e565b612b278185613b77565b9350612b37818560208601613d1a565b80840191505092915050565b60008154612b5081613d4d565b612b5a8186613b55565b94506001821660008114612b755760018114612b8757612bba565b60ff1983168652602086019350612bba565b612b9085613ad8565b60005b83811015612bb257815481890152600182019150602081019050612b93565b808801955050505b50505092915050565b60008154612bd081613d4d565b612bda8186613b77565b94506001821660008114612bf55760018114612c0657612c39565b60ff19831686528186019350612c39565b612c0f85613ad8565b60005b83811015612c3157815481890152600182019150602081019050612c12565b838801955050505b50505092915050565b6000612c4f603283613b66565b91507f4552433732313a207472616e7366657220746f206e6f6e20455243373231526560008301527f63656976657220696d706c656d656e74657200000000000000000000000000006020830152604082019050919050565b6000612cb5601c83613b66565b91507f4552433732313a20746f6b656e20616c7265616479206d696e746564000000006000830152602082019050919050565b6000612cf5600a83613b77565b91507f54484952445f574f5244000000000000000000000000000000000000000000006000830152600a82019050919050565b6000612d35602483613b66565b91507f4552433732313a207472616e7366657220746f20746865207a65726f2061646460008301527f72657373000000000000000000000000000000000000000000000000000000006020830152604082019050919050565b6000612d9b601983613b66565b91507f4552433732313a20617070726f766520746f2063616c6c6572000000000000006000830152602082019050919050565b6000612ddb606383613b77565b91507f222c20226465736372697074696f6e223a20224120686967686c79206163636c60008301527f61696d656420636f6c6c656374696f6e206f6620737175617265732e222c202260208301527f696d616765223a2022646174613a696d6167652f7376672b786d6c3b6261736560408301527f36342c00000000000000000000000000000000000000000000000000000000006060830152606382019050919050565b6000612e8d600b83613b77565b91507f5345434f4e445f574f52440000000000000000000000000000000000000000006000830152600b82019050919050565b6000612ecd602c83613b66565b91507f4552433732313a206f70657261746f7220717565727920666f72206e6f6e657860008301527f697374656e7420746f6b656e00000000000000000000000000000000000000006020830152604082019050919050565b6000612f33600d83613b77565b91507f3c2f746578743e3c2f7376673e000000000000000000000000000000000000006000830152600d82019050919050565b6000612f73603883613b66565b91507f4552433732313a20617070726f76652063616c6c6572206973206e6f74206f7760008301527f6e6572206e6f7220617070726f76656420666f7220616c6c00000000000000006020830152604082019050919050565b6000612fd9602a83613b66565b91507f4552433732313a2062616c616e636520717565727920666f7220746865207a6560008301527f726f2061646472657373000000000000000000000000000000000000000000006020830152604082019050919050565b600061303f602983613b66565b91507f4552433732313a206f776e657220717565727920666f72206e6f6e657869737460008301527f656e7420746f6b656e00000000000000000000000000000000000000000000006020830152604082019050919050565b60006130a5602e83613b66565b91507f45524337323155524953746f726167653a2055524920736574206f66206e6f6e60008301527f6578697374656e7420746f6b656e0000000000000000000000000000000000006020830152604082019050919050565b600061310b600f83613b66565b91507f576527766520736f6c64206f75742100000000000000000000000000000000006000830152602082019050919050565b600061314b600283613b77565b91507f227d0000000000000000000000000000000000000000000000000000000000006000830152600282019050919050565b600061318b602083613b66565b91507f4552433732313a206d696e7420746f20746865207a65726f20616464726573736000830152602082019050919050565b60006131cb603183613b66565b91507f45524337323155524953746f726167653a2055524920717565727920666f722060008301527f6e6f6e6578697374656e7420746f6b656e0000000000000000000000000000006020830152604082019050919050565b6000613231602c83613b66565b91507f4552433732313a20617070726f76656420717565727920666f72206e6f6e657860008301527f697374656e7420746f6b656e00000000000000000000000000000000000000006020830152604082019050919050565b6000613297602983613b66565b91507f4552433732313a207472616e73666572206f6620746f6b656e2074686174206960008301527f73206e6f74206f776e00000000000000000000000000000000000000000000006020830152604082019050919050565b60006132fd602f83613b66565b91507f4552433732314d657461646174613a2055524920717565727920666f72206e6f60008301527f6e6578697374656e7420746f6b656e00000000000000000000000000000000006020830152604082019050919050565b6000613363600a83613b77565b91507f7b226e616d65223a2022000000000000000000000000000000000000000000006000830152600a82019050919050565b60006133a3602183613b66565b91507f4552433732313a20617070726f76616c20746f2063757272656e74206f776e6560008301527f72000000000000000000000000000000000000000000000000000000000000006020830152604082019050919050565b6000613409600a83613b77565b91507f46495253545f574f5244000000000000000000000000000000000000000000006000830152600a82019050919050565b6000613449601d83613b77565b91507f646174613a6170706c69636174696f6e2f6a736f6e3b6261736536342c0000006000830152601d82019050919050565b6000613489603183613b66565b91507f4552433732313a207472616e736665722063616c6c6572206973206e6f74206f60008301527f776e6572206e6f7220617070726f7665640000000000000000000000000000006020830152604082019050919050565b60006134ef600583613b77565b91507f434f4c4f520000000000000000000000000000000000000000000000000000006000830152600582019050919050565b61352b81613d01565b82525050565b600061353d8284612b12565b915081905092915050565b60006135548285612b12565b91506135608284612b12565b91508190509392505050565b60006135788286612b12565b91506135848285612b12565b91506135908284612b12565b9150819050949350505050565b60006135a98287612bc3565b91506135b58286612b12565b91506135c18285612bc3565b91506135cd8284612b12565b91506135d882612f26565b915081905095945050505050565b60006135f182612ce8565b91506135fd8284612b12565b915081905092915050565b600061361382612e80565b915061361f8284612b12565b915081905092915050565b600061363582613356565b91506136418285612b12565b915061364c82612dce565b91506136588284612b12565b91506136638261313e565b91508190509392505050565b600061367a826133fc565b91506136868284612b12565b915081905092915050565b600061369c8261343c565b91506136a88284612b12565b915081905092915050565b60006136be826134e2565b91506136ca8284612b12565b915081905092915050565b60006020820190506136ea6000830184612960565b92915050565b60006080820190506137056000830187612960565b6137126020830186612960565b61371f6040830185613522565b81810360608301526137318184612a67565b905095945050505050565b60006060820190506137516000830186612960565b61375e6020830185613522565b818103604083015261377081846129e4565b9050949350505050565b60006020820190508181036000830152613794818461296f565b905092915050565b60006020820190506137b16000830184612a58565b92915050565b600060208201905081810360008301526137d18184612ad9565b905092915050565b600060608201905081810360008301526137f38186612ad9565b90506138026020830185613522565b61380f6040830184612960565b949350505050565b6000602082019050818103600083015261383081612c42565b9050919050565b6000602082019050818103600083015261385081612ca8565b9050919050565b6000602082019050818103600083015261387081612d28565b9050919050565b6000602082019050818103600083015261389081612d8e565b9050919050565b600060208201905081810360008301526138b081612ec0565b9050919050565b600060208201905081810360008301526138d081612f66565b9050919050565b600060208201905081810360008301526138f081612fcc565b9050919050565b6000602082019050818103600083015261391081613032565b9050919050565b6000602082019050818103600083015261393081613098565b9050919050565b60006020820190508181036000830152613950816130fe565b9050919050565b600060208201905081810360008301526139708161317e565b9050919050565b60006020820190508181036000830152613990816131be565b9050919050565b600060208201905081810360008301526139b081613224565b9050919050565b600060208201905081810360008301526139d08161328a565b9050919050565b600060208201905081810360008301526139f0816132f0565b9050919050565b60006020820190508181036000830152613a1081613396565b9050919050565b60006020820190508181036000830152613a308161347c565b9050919050565b6000602082019050613a4c6000830184613522565b92915050565b6000604051905081810181811067ffffffffffffffff82111715613a7957613a78613e86565b5b8060405250919050565b600067ffffffffffffffff821115613a9e57613a9d613e86565b5b601f19601f8301169050602081019050919050565b6000819050602082019050919050565b60008190508160005260206000209050919050565b60008190508160005260206000209050919050565b600081519050919050565b600081549050919050565b600081519050919050565b600081519050919050565b6000602082019050919050565b6000600182019050919050565b600082825260208201905092915050565b600082825260208201905092915050565b600082825260208201905092915050565b600082825260208201905092915050565b600081905092915050565b6000613b8d82613d01565b9150613b9883613d01565b9250827fffffffffffffffffffffffffffffffffffffffffffffffffffffffffffffffff03821115613bcd57613bcc613df9565b5b828201905092915050565b6000613be382613d01565b9150613bee83613d01565b925082613bfe57613bfd613e28565b5b828204905092915050565b6000613c1482613d01565b9150613c1f83613d01565b9250817fffffffffffffffffffffffffffffffffffffffffffffffffffffffffffffffff0483118215151615613c5857613c57613df9565b5b828202905092915050565b6000613c6e82613d01565b9150613c7983613d01565b925082821015613c8c57613c8b613df9565b5b828203905092915050565b6000613ca282613ce1565b9050919050565b60008115159050919050565b60007fffffffff0000000000000000000000000000000000000000000000000000000082169050919050565b600073ffffffffffffffffffffffffffffffffffffffff82169050919050565b6000819050919050565b82818337600083830152505050565b60005b83811015613d38578082015181840152602081019050613d1d565b83811115613d47576000848401525b50505050565b60006002820490506001821680613d6557607f821691505b60208210811415613d7957613d78613e57565b5b50919050565b6000613d8a82613d01565b91507fffffffffffffffffffffffffffffffffffffffffffffffffffffffffffffffff821415613dbd57613dbc613df9565b5b600182019050919050565b6000613dd382613d01565b9150613dde83613d01565b925082613dee57613ded613e28565b5b828206905092915050565b7f4e487b7100000000000000000000000000000000000000000000000000000000600052601160045260246000fd5b7f4e487b7100000000000000000000000000000000000000000000000000000000600052601260045260246000fd5b7f4e487b7100000000000000000000000000000000000000000000000000000000600052602260045260246000fd5b7f4e487b7100000000000000000000000000000000000000000000000000000000600052604160045260246000fd5b6000601f19601f8301169050919050565b613ecf81613c97565b8114613eda57600080fd5b50565b613ee681613ca9565b8114613ef157600080fd5b50565b613efd81613cb5565b8114613f0857600080fd5b50565b613f1481613d01565b8114613f1f57600080fd5b5056fe616e204e465420772f20494420257320686173206265656e206d696e74656420746f2025734142434445464748494a4b4c4d4e4f505152535455565758595a6162636465666768696a6b6c6d6e6f707172737475767778797a303132333435363738392b2fa26469706673582212206ba845b3ddcba4e9e239e05c2842fc288dc57aa55e4e150cc0cac56692f2260164736f6c634300080000333c73766720786d6c6e733d27687474703a2f2f7777772e77332e6f72672f323030302f73766727207072657365727665417370656374526174696f3d27784d696e594d696e206d656574272076696577426f783d273020302033353020333530273e3c7374796c653e2e62617365207b2066696c6c3a2077686974653b20666f6e742d66616d696c793a2073657269663b20666f6e742d73697a653a20323470783b207d3c2f7374796c653e3c726563742077696474683d273130302527206865696768743d2731303025272066696c6c3d27272f3e3c7465787420783d273530252720793d273530252720636c6173733d27626173652720646f6d696e616e742d626173656c696e653d276d6964646c652720746578742d616e63686f723d276d6964646c65273e",
  "linkReferences": {},
  "deployedLinkReferences": {}
}